:0C0000000C9469000C9400000C940000AB
:10000C000C9400000C9400000C9400000C94000064
:10001C000C9400000C9400000C9400000C94000054
:10002C000C9400000C9400000C9400000C94000044
:10003C000C9400000C9400000C9400000C94000034
:10004C000C9400000C9400000C9400000C94000024
:10005C000C9400000C9400000C9400000C94000014
:10006C000C9400000C9400000C9400000C94000004
:10007C000C9400000C9400000C9400000C940000F4
:10008C001027E80364000A000100001000011000B2
:10009C00010001004D61737465722053656E64201C
:1000AC003A0020202020202020202020202020204A
:1000BC002020202020200000010007009E001500B9
:1000CC000005AE000000F894EE27ECBBF1E0F5BFA4
:1000DC00E5BFE0936C008DE0A2E0BB27ED938A9521
:1000EC00E9F780E090E1A0E0B1E0ED930197E9F74A
:1000FC00E4ECF0E085919591009761F0A591B591B4
:10010C0005901590BF01F00105900D920197E1F754
:10011C00FB01F0CF8BBFEFEFEDBFE0E1EEBFC0E036
:10012C00D5E00C94FE00EFEFEABBEFE1E093640046
:10013C000895BED0E460C1D0ED7FBFD0C3D056C00F
:10014C00B7D0EB7FBAD0ED7FB8D0BCD04FC01A93EC
:10015C001A2FBB27DBD04AC01A930A931A2F0A8195
:10016C00A0E40A02F001E10FE068AE2FE9DF19818B
:10017C000881239608951A931A2FDBDFA1E0B0E0D3
:10018C00C5D034C01A930A938D01D801EC91E0309C
:10019C0029F0AC91F0DF0F5F1F4FF7CF0991199148
:1001AC000895A1E0CDDFA2E0D2DF0895BCDF9AD0A4
:1001BC0099D098D0AEE0C4DFA4E0C9DFA6E0C0DFE0
:1001CC00A4E0C5DFEEDF0895E7B3E760E7BBBB98BB
:1001DC00E7E5EDB9E0E0EEB9C09A08951A931A2F4D
:1001EC00C0981FB9779BFECFC09AEFB119910895B3
:1001FC002E978EE060E070E0E0EAF0E07BD010E05B
:10020C0000E030E0E0E0E1BBDFDFD0DFE0E0EA93EC
:10021C00A0E0A2DFDE01B6DFE0B31E2FF0E0EF3787
:10022C00A0E0FA0719F438E461D030C0EF3BA0E04D
:10023C00FA0719F437E45AD029C0EF3DA0E0FA07C9
:10024C0019F436E453D022C0EF3EA0E0FA0719F4BB
:10025C0035E44CD01BC0E73FA0E0FA0719F434E4B6
:10026C0045D014C0EB3FA0E0FA0719F433E43ED0BC
:10027C000DC0ED3FA0E0FA0719F432E437D006C008
:10028C00EE3FA0E0FA0711F431E430D0013059F41C
:10029C00C098A32FA3DFC09AE0E0EA93AEE05CDF46
:1002AC00A32F69DF00E0A4E6B0E030D0B5CFFFCFDC
:1002BC001A931A2FE09165000895E0936500E09180
:1002CC0065000895E160E093650086EF8A95F1F78B
:1002DC001BBB86EF8A95F1F7E0916500EE7FE0930A
:1002EC0065000895A8E32CDFA4E031CF01E0AAE07B
:1002FC00B0E00CC0AF93BF93DB01AC0FBD1F0590FA
:10030C000D928A95E1F7BF91AF910895109639F04F
:10031C00A89586E69EE00197F1F71197C9F7089525
:00000001FF
