:0E0000000C946B000C9400000C9400000C9407
:10000E0000000C9400000C9400000C9400000C9462
:10001E0000000C9400000C9400000C9400000C9452
:10002E0000000C9400000C9400000C9400000C9442
:10003E0000000C9400000C94F3000C9400000C943F
:10004E0000000C9400000C9400000C9400000C9422
:10005E0000000C9400000C9400000C9400000C9412
:10006E0000000C9400000C9400000C9400000C9402
:10007E0000000C9400000C9400000C94000010275B
:10008E00E80364000A0001000010000110000100E6
:10009E00010000000000536C617665205265632EEE
:1000AE00203A200020202020202020202020202048
:1000BE0020202020202020200000050007009E0088
:1000CE0015000005B2000000F894EE27ECBBF1E03D
:1000DE00F5BFE5BFE0936C008DE0A2E0BB27ED938A
:1000EE008A95E9F780E090E1A0E0B1E0ED93019709
:1000FE00E9F7E8ECF0E085919591009761F0A59114
:10010E00B59105901590BF01F00105900D920197E4
:10011E00E1F7FB01F0CF8BBFEFEFEDBFE0E1EEBFFC
:10012E00C0E0D5E00C941901EFEFEABBEFE1E093EC
:10013E00640008959FD0E460A2D0ED7FA0D0A4D03B
:10014E0020C098D0EB7F9BD0ED7F99D09DD019C069
:10015E001A931A2FBB2714C01A930A931A2F0A81C7
:10016E00A0E40A02F001E10FE068AE2FEADF198188
:10017E000881239608951A931A2FDCDFA1E0B0E0D0
:10018E00ADD0199108951A930A938D01D801EC916F
:10019E00E03029F0AC91EFDF0F5F1F4FF7CF0991E1
:1001AE0019910895A1E0CDDFA2E0D2DF0895BCDF62
:1001BE007BD07AD079D0AEE0C4DFA4E0C9DFA6E070
:1001CE00C0DFA4E0C5DFEEDF0895BB9AE7ECEDB922
:1001DE00E0E0EEB9789408950A921A92FA926A9330
:1001EE007A938A939A93AA93BA93EA93FA93EFB770
:1001FE00EA936FB0E1E08E2EE0E4E61511F4E1E053
:10020E00BE2EAAE0B0E06AD0E991EFBFF991E99174
:10021E00B991A9919991899179916991F9901990D2
:10022E00099018952E978EE060E070E0E4EAF0E019
:10023E0049D0CBDFBCDF3CD0BB2041F0B3DF38D0A0
:10024E009924BB24ACE2B1E049D012C0882081F0E1
:10025E00A62D91DFA4E6B0E041D0EFE09E1610F49B
:10026E00939405C09924E1E0EA93A0E075DF882419
:10027E00E3CFFFCF1A931A2FE09165000895E09314
:10028E006500E09165000895E160E093650086EFFA
:10029E008A95F1F71BBB86EF8A95F1F7E091650021
:1002AE00EE7FE09365000895A8E34BDFA4E050CF06
:1002BE00E0E0EA93A0E050DFDE0165DFE1E0EA93E3
:1002CE00A0E04ACFAF93BF93DB01AC0FBD1F0590EB
:1002DE000D928A95E1F7BF91AF910895109639F07E
:1002EE00A89586E69EE00197F1F71197C9F7089554
:00000001FF
