:080000000C9446000C94000072
:100008000C9400000C9400000C9400000C94000068
:100018000C9400000C9400000C9400000C94000058
:100028000C9400000C9400000C9400000C94000048
:100038000C9400000C9400000C9400000C94000038
:100048000C9400000C9400000C9400000C94000028
:100058000C9400000C9400000C9400000C94000018
:100068000C9400000C9400000C9400000C94000008
:100078000C9400000C9400000C9400000C940000F8
:100088000C940000F894EE27ECBBF1E0F5BFE5BF57
:10009800E0936C008DE0A2E0BB27ED938A95E9F729
:1000A80080E090E1A0E0B1E0ED930197E9F78BBF24
:1000B800EFEFEDBFE0E1EEBFC0E0D5E00C94D40077
:1000C800E2E3E0937000E4E0E0937400E0E0E093A2
:1000D8007100089589D03A2F00E010E0E091740093
:1000E800E078E1F3D8010F5F1F4FA13DE7E0BE07BD
:1000F80010F0E1E008C0E0917100E87F3E1711F0D0
:10010800E1E001C0E0E075D024960895E4EAE093C8
:100118007400A8E010C060D0A8E102C05DD0A8E2D9
:10012800D9DF19910895E4E9E09374000895E4EAA9
:10013800E0937400A0E1CEDF0895E4E8E093740052
:10014800A8E5C8DFE091730008954ED03A2F2C81BE
:10015800DDDFA22FE0DFA32FE1DFE9DFA22FDBDF66
:10016800ECDF1E2FE0DFE12F44D0259608953CD028
:100178001A2F0C813D81CADFA32FCDDFA02FCEDF40
:10018800A12FCCDFD0DF35D026960895E0E4EA939E
:10019800E0E0EA93AFE0EBDFAAE0B0E02FD008950B
:1001A80020E08EDFF3DFE0E4EA93A9E0CEDF1E2F44
:1001B800312FE32FE295E07FEF600E2FA1E0B0E052
:1001C8001DD0E0E4EA93E9E0EA93A0E1D0DFA4E6F9
:1001D800B0E014D0E8CFFFCF1A931A2F1093730012
:1001E800E4E8E093740008953A932A931A930A93E3
:1001F80008953B812A81198108810895109639F064
:10020800A89586E69EE00197F1F71197C9F708953A
:00000001FF
