:020000000C945E
:1000020058000C9400000C9400000C9400000C9416
:1000120000000C9400000C9400000C9400000C945E
:1000220000000C9400000C9400000C9400000C944E
:1000320000000C9400000C9400000C94C6010C9477
:1000420000000C9400000C9400000C9400000C942E
:1000520000000C9400000C9400000C9400000C941E
:1000620000000C9400000C9400000C9400000C940E
:1000720000000C9400000C9400000C9400000C94FE
:1000820000000C9400000C9400002020202020206E
:100092002020202020202020202020202020002579
:1000A200303364636D00150000058C000000F89485
:1000B200EE27ECBBF1E0F5BFE5BFE0936C008DE00D
:1000C200A2E0BB27ED938A95E9F780E090E1A0E0FA
:1000D200B1E0ED930197E9F7E8EAF0E085919591B7
:1000E200009761F0A591B59105901590BF01F001BF
:1000F20005900D920197E1F7FB01F0CF8BBFEFEF77
:10010200EDBFE0E1EEBFC0E0D5E00C94E601EFEF19
:10011200EABBEFE1E093640008956ED3E46071D32B
:10012200ED7F6FD373D3F3C067D3EB7F6AD3ED7FD9
:1001320068D36CD3ECC01A931A2FBB2727D4E7C01D
:100142001A930A931A2F0A81A0E40A02F001E10F1E
:10015200E068AE2FE9DF19810881239608951A938A
:100162001A2FDBDFA1E0B0E011D4D1C01A930A93B9
:100172008D01D801EC91E03029F0AC91F0DF0F5FF6
:100182001F4FF7CF099119910895A1E0CDDFA2E0A9
:10019200D2DF0895BCDF4AD349D348D3AEE0C4DFEF
:1001A200A4E0C9DFA6E0C0DFA4E0C5DFEEDF08956A
:1001B200E2E3E0937000E4E0E0937400E0E0E093B7
:1001C200710008959CD33A2F00E010E0E091740092
:1001D200E07851F4D8010F5F1F4FA13DE7E0BE0761
:1001E20010F0E1E0EFC0F2CFE0917100E87F3E173E
:1001F20011F0E2E0E7C0E0E0E5C0E4EAE093740079
:10020200A8E010C017D3A8E1DDDF81C013D3A8E2B4
:10021200D9DF7DC0E4E9E09374000895E4EAE09355
:100222007400A0E1CFDF08951A931A2FE12FE16045
:10023200E0937300E4E8E0937400A0E4C3DF67C0D6
:100242005ED39D0110E0E4E8E0937400A8E5BADF14
:100252001E2FE0917300D901EC93E0E0B3C04FD3BD
:100262000A2F3C812D8110E0C8DF1E2FA22FCADF8A
:100272001E2F103009F00EC0A32FC8DF1E2F103022
:1002820009F008C0A02FC2DF1E2F103009F002C0F3
:10029200C1DFE0E03BD3269608952FD39D015E8116
:1002A2004F8110E000E0A9DF0E2FA42FABDF0E2F4D
:1002B200003009F022C0A52FA9DF0E2F003009F06F
:1002C2001CC0ACDF0E2FC39A003009F016C0A42F59
:1002D200ABDF0E2FC49A003009F00FC0ADB7BEB726
:1002E2001F93AEDF1F910E2FC59A003009F005C093
:1002F20091DFE12FD901EC93E0E006D3289608952F
:100302001A931A2F1A93E0E0EA93A1E5A8DF199154
:100312000895F3D29D015E8100E05A93E2E0EA93F0
:10032200ADB7BEB71F93B9DF1F910E2F003011F08A
:10033200F0E0BBC0F12FE0E0D901ED93FC935A93BA
:10034200E3E0EA93ADB7BEB71F93A7DF1F910E2F6D
:10035200003011F0F0E0A9C0F9010F01DF01ED91C9
:10036200FD91DF01E12FF0E0EA2BFB2BD001ED93B1
:10037200FC93E02FF0E099C0EFE0E3BFE0E0E2BFE2
:10038200E4E6E1BFE2E0E7BF0895EA93EFB75394F2
:100392004394EFBFE9911895B2D20A2F0A93ADB7F1
:1003A200BEB711973F932F93B4DF2F913F911E2F2A
:1003B200103019F0E0E0F0E005C0E4E6E41510F4D6
:1003C2004424F901A3D224960895AC97E0E0E8838F
:1003D200E98300EEE1B3E360E1BBDCDECDDFE8DE22
:1003E200A8EEB3E0D3D27894A02F8ADF552420E080
:1003F20030E040E050E0E0E0EAA7EBA74424E4E686
:10040200E51530F5003E21F40CEE1CD29F010AC026
:100412000C3E21F402EE16D2AF0104C000EE12D25D
:10042200EAA7FBA7B2DE12D2F90119D2E0E01ED28E
:10043200FA0115D2E1E01AD2EEA5FFA510D2E1E051
:10044200EA93A5E07DDEDE01129690DE4424552477
:10045200D6CFFFCF52D29D015E811296ED91FC91D3
:1004620011973097E9F0D90108D28F01309759F0EE
:100472000230E0E01E0760F0F80131978F01D901E8
:100482001496ED93FC93D9011296FCD131975083C7
:10049200D901ED91FC911197FF230AF0F3D105C028
:1004A200D901EFEFFFEFED93FC932ED2279608953B
:1004B200BA93AA932B9721D210E0A989BA89E0E0D6
:1004C200F0E0ED93FC93EF89F88D3196EF8BF88F86
:1004D2003197E4912E2FE03009F437C1E12FE0305B
:1004E20031F4253211F411E001C0D2D12DC1E13035
:1004F200A1F4253211F4CCD126C112E040E000E093
:100502002D3211F401E020C12B3211F44BE21CC157
:10051200203211F440E218C102C0E23039F450E056
:1005220013E0203311F400680FC102C0E33091F4EC
:10053200203310F02A3308F007C0AAE05A9F502D4A
:10054200E22FE0535E0F00C12C3619F4026015E071
:10055200FBC003C0E53009F0F7C0E22FE33639F4FF
:100562009ED1ED89FE89A481AA939FD1ECC0E33785
:1005720029F495D1A0D127D11E2F07C0E03751F41D
:100582008ED199D12CD11E2F08600F77E0E0E88B35
:1005920030E060C0E43611F0E93611F4046002C0C4
:1005A200E53791F4EAE0E88B01FF07C0E0E0FAECFE
:1005B2006AE97BE38AD11AE01FC0E0E1F7E260E07A
:1005C20070E083D115E018C0E83511F4086003C06B
:1005D200E83709F0B8C0E0E1E88B01FF07C0E0E0CE
:1005E200F0E060E070E171D118E006C0E0E0F0E117
:1005F20060E070E06AD114E001FF06C050D1AD891D
:10060200BE891496B8D111C002FF09C048D1AD8984
:10061200BE8933D16F2F660F660B762F06C03FD18E
:10062200AD89BE892AD166277727EC87FD876E8739
:100632007F8702FF0FC0AF85AA233AF4EC85FD85C0
:100642006E857F8568D146D14DE2403011F01F5F43
:1006520001C00B7F00FD10C0151770F407FF08C022
:1006620002FF04C00B7F242F115001C020E301C000
:1006720020E20ED15150F0CF312FE889E030B1F4B1
:10068200303099F003FF06C0EE81FF812591EE83A1
:10069200FF8305C0AE81BF812D91AE83BF83F8D0A9
:1006A200503009F051503150EBCF44C018D13BD1FA
:1006B2002E2F2A3030F003FF02C0295C01C0295AD4
:1006C20001C0205D04FD1EC0213348F411D1A130C8
:1006D200E0E0BE07E0E08E07E0E09E0709F409C013
:1006E200531710F000FF01C011C020E207FF0AC03B
:1006F20020E3006102FF06C00B7F4A93D6D0503040
:1007020009F05150C5D0503009F051503150E7D066
:100712002ED1E0D0E889ECD0FF276627772703D1D6
:10072200D4D0E885F9856A857B8530976040704032
:1007320009F0BCCF00FF07C0503029F05150E0E271
:10074200EA93B3D0F9CF10E0BECEA989BA89ED9170
:10075200FD91DAD069960895FF92F82E2697CDD0B2
:10076200FE010024EF0DF01D46855785042E052A53
:1007720019F4EFEFFFEF23C0DE0118960024AF0D4E
:10078200B01D8D0148875987E0E0EA87EB87DE01DB
:100792001C960024AF0DB01DED91FD91FA93EA93E2
:1007A2001A930A93EBE2F2E0FA93EA93DE011C96C3
:1007B2007FDE9F01A885B985E0E0EC93F901A4D022
:1007C2002C96FF900895BA93AA93A991B991EE2716
:1007D200FF276D91662311F03196FBCF0895BA93EE
:1007E200AA93AA27BB27E991F9910590002011F05D
:1007F2001196FBCFFD0108951A931A2FE09165001F
:100802000895E0936500E09165000895E160E0934A
:10081200650086EF8A95F1F71BBB86EF8A95F1F7A3
:10082200E0916500EE7FE09365000895A8E37CDC2B
:10083200A4E081CC1A931A2F10937300E4E8E0939A
:1008420074000895A02F5CDDA02FA6CDFE01329684
:10085200FA93EA93E1EAF0E0FA93EA9308956627BD
:1008620077278FD084E078DF28960895EA93A0E076
:1008720067DCDE0112967ADCE9CF1496ED91FC91E9
:1008820011970895ED91FD913196FE93EE9308959F
:100892002A93AA89BB89EC89FD8909950895ED8976
:1008A200FE893497ED8BFE8B0895AA89BB89EC896A
:1008B200FD8909950895AD89BE891496ED91FD9142
:1008C200EE83FF83AE81BF810895E887F9876A8747
:1008D2007B870895EC87FD876E877F870895E8857B
:1008E200F9856A857B85AC85BD858E859F85089552
:1008F200A885B9858A859B8508955A934A933A9328
:100902002A931A930A9308955D814C813B812A812F
:10091200198108810895F09560957095E195FF4FD2
:100922006F4F7F4F08953F934F935F93002411249D
:10093200A00130E2AA0FBB1F881F991F001C111CC7
:10094200441F551F0E1A1F0A460B570B28F40E0E92
:100952001F1E461F571F01C0A1603A9559F7FD019E
:10096200BC01D001CA015F914F913F910895DBDF35
:10097200FD01BC010895ED91FD916D917C9113975C
:1009820008957A936A93FA93EA930895109639F048
:10099200A89586E69EE00197F1F71197C9F70895A9
:00000001FF
