:0A0000000C94D8000C9400000C943E
:10000A0000000C9400000C9400000C9400000C9466
:10001A0000000C9400000C9400000C9400000C9456
:10002A0000000C9400000C9468020C9400000C94DC
:10003A0000000C94A1030C9400000C9400000C9492
:10004A0000000C9400000C9400000C9400000C9426
:10005A0000000C9400000C9400000C9400000C9416
:10006A0000000C9400000C9400000C9400000C9406
:10007A0000000C9400000C9400000C9400000C94F6
:10008A0000001027E80364000A00010000100001C4
:10009A00100001000000C0F9A4B0999282D88090A3
:1000AA008883C4A1848E1F002F004F008F00000098
:1000BA00585858010000000000000000000000002D
:1000CA000000000000000000000000000000000026
:1000DA000000000000000000000000000000000016
:1000EA000000000000000000000000000000000006
:1000FA0000000000000000000000000000000000F6
:10010A0020202020202020202020202020202020E5
:10011A0020202020005374756479526F6F6D7C2003
:10012A00343A4F555400313A256320323A25632038
:10013A00333A2563002564256425642564256425EE
:10014A00642564256425642564256400496E7075F8
:10015A00742050686F6E654E756D00536F6D656FD4
:10016A006E65205573656400313A596573202032F3
:10017A003A4E6F00010005009E00150000050A01B5
:10018A0010004E05A00007005E05B000110015051D
:10019A001F010F00260556010D00350565010C00EB
:1001AA00420572010000F894EE27ECBBF1E0F5BFBE
:1001BA00E5BFE0936C008DE0A2E0BB27ED938A9542
:1001CA00E9F780E090E1A0E0B1E0ED930197E9F76B
:1001DA00EEE7F1E085919591009761F0A591B591CF
:1001EA0005901590BF01F00105900D920197E1F776
:1001FA00FB01F0CF8BBFEFEFEDBFE0E1EEBFC0E058
:10020A00D5E00C94C103EFEFEABBEFE1E0936400A1
:10021A00089513D6E46016D6ED7F14D618D6F3C027
:10022A000CD6EB7F0FD6ED7F0DD611D6ECC01A9304
:10023A001A2FBB2743D7E7C01A930A931A2F0A81AA
:10024A00A0E40A02F001E10FE068AE2FE9DF1981AC
:10025A000881239608951A931A2FDBDFA1E0B0E0F4
:10026A002DD7D1C01A930A938D01D801EC91E030B1
:10027A0029F0AC91F0DF0F5F1F4FF7CF51C2A1E019
:10028A00CFDFA2E0D4DF0895BEDFF1D5F0D5EFD5F8
:10029A00AEE0C6DFA4E0CBDFA6E0C2DFA4E0C7DFA2
:1002AA00EEDF0895E2E3E0937000E4E0E093740087
:1002BA00E0E0E0937100089570D63A2F00E010E074
:1002CA00E0917400E07851F4D8010F5F1F4FA13D0F
:1002DA00E7E0BE0710F0E1E04CC2F2CFE091710016
:1002EA00E87F3E1711F0E2E044C2E0E042C2E4EAED
:1002FA00E0937400A8E010C0BED5A8E1DDDF83C09A
:10030A00BAD5A8E2D9DF7FC0E4E9E0937400089582
:10031A00E4EAE0937400A0E1CFDF08951A931A2F5C
:10032A00E12FE160E0937300E4E8E0937400A0E455
:10033A00C3DF69C032D69D0110E0E4E8E09374009F
:10034A00A8E5BADF1E2FE0917300D901EC93E0E033
:10035A0010C223D60A2F3C812D8110E0C8DF1E2F40
:10036A00A22FCADF1E2F103011F01ED68CC1A32F68
:10037A00C7DF1E2F103011F017D685C1A02FC0DF9E
:10038A001E2F103011F010D67EC1BEDFE0E00CD671
:10039A007AC101D69D015E814F8110E000E0A7DF9E
:1003AA000E2FA42FA9DF0E2F003009F022C0A52F8F
:1003BA00A7DF0E2F003009F01CC0AADF0E2FC39A48
:1003CA00003009F016C0A42FA9DF0E2FC49A0030FE
:1003DA0009F00FC0ADB7BEB71F93ACDF1F910E2F48
:1003EA00C59A003009F005C08FDFE12FD901EC93DF
:1003FA00E0E0D8D5289608951A931A2F1A93E0E0C8
:10040A00EA93A1E5A6DF19910895C5D59D015E81FC
:10041A0000E05A93E2E0EA93ADB7BEB71F93B9DFA3
:10042A001F910E2F003019F0F0E00C94AA05F12F5D
:10043A00E0E0D901ED93FC935A93E3E0EA93ADB778
:10044A00BEB71F93A6DF1F910E2F003019F0F0E000
:10045A000C94AA05F9010F01DF01ED91FD91DF016D
:10046A00E12FF0E0EA2BFB2BD001ED93FC93E02F78
:10047A00F0E00C94AA05E2B1E06FE2B9E091610004
:10048A00EF6FE0936100E4B3EF60E4BBE0916400D6
:10049A00E061E0936400BD9AE5B3EF6FE5BB0895B0
:1004AA00E2E8EFBDEAE1EEBDE0E0F0E0FDBDECBD63
:1004BA00EFEFFFE8F7BDE6BDEDECFAE0FBBDEABD04
:1004CA00E7B7E06137C10000189567D59D0100E0E4
:1004DA0010E00217130730F485E08A95F1F70F5FF1
:1004EA001F4FF7CF46C157D5AD0130E0FA01A0E161
:1004FA00B7E28ED53E2F00E010E0E32FD801F0E0FE
:10050A00AE17BF0758F4E0916500E061BCD4E091F2
:10051A006500EF7EB8D40F5F1F4FEFCFB3C03BD556
:10052A000EEF10E030E020E040E050E030E0343000
:10053A00A0F505BB85E08A95F1F7E3B3E07F2E2F9E
:10054A00203039F1F0E0E031A0E0FA0729F4E4E0E4
:10055A00E39FF00131961AC0E032A0E0FA0729F4CD
:10056A00E4E0E39FF001329611C0E034A0E0FA071C
:10057A0029F4E4E0E39FF001339608C0E038A0E0F4
:10058A00FA0729F4E4E0E39FF0013496AF01E42F7F
:10059A0079C0000F111F3F5FCACF74C01A930A9324
:1005AA000A2F10E0003011F410E034C0A02FBB274E
:1005BA00E4E0F0E048D5309721F469D4E45F1E2FD7
:1005CA0029C065D4309729F462D467D4E00D1E2F70
:1005DA0021C05DD4E130A0E0FA0731F458D45DD4EB
:1005EA00A02DAE0FA15015C052D4E230A0E0FA07F8
:1005FA0031F44DD452D4A02DAE0FA2500AC047D424
:10060A00E330A0E0FA0731F442D447D4A02DAE0F6C
:10061A00A3501A2F1B3019F410E0E1E05E2EE12FEF
:10062A007FC0B9D4AD01E8EEF3E0F2D42E2FDA019F
:10063A00E8EEF3E005D5DF01E4E6F0E0E9D43E2F89
:10064A00DA01E4E6F0E0FCD4DF01EAE0F0E0E0D42D
:10065A000E2FDA01EAE0F0E0F3D41E2FE0915E05F6
:10066A00E3B9E12F23D4E0916005E3B9E02F1ED46A
:10067A00E0916205E3B9E32F19D4E0916405E3B987
:10068A00E22F14D48FD4269608951A930A938D01D3
:10069A00F801E130A0E0FA0721F4A4E7B7E023DF8C
:1006AA003FC0E230A0E0FA0721F4A4EAB6E01BDF7B
:1006BA0037C0E330A0E0FA0721F4ABEEB5E013DF70
:1006CA002FC0E430A0E0FA0721F4A8E9B5E00BDF77
:1006DA0027C0E530A0E0FA0721F4ABEFB4E003DF6E
:1006EA001FC0E630A0E0FA0721F4A0E7B4E0FBDE81
:1006FA0017C0E730A0E0FA0721F4A4EFB3E0F3DE75
:10070A000FC0E830A0E0FA0721F4AAEBB3E0EBDE71
:10071A0007C0E930A0E0FA0719F4A2E5B3E0E3DE86
:10072A00099119910895EFE0E3BFE0E0E2BFE4E642
:10073A00E1BFE2E0E7BF0895EA93EFB74394739409
:10074A00EFBFE991189529D40A2F0A93ADB7BEB71E
:10075A0011973F932F9359DE2F913F911E2F1030FF
:10076A0019F0E0E0F0E005C0E4E6E71510F47724BC
:10077A00F9011AD424960895EF97E59782E562E283
:10078A0070E0E8EBF0E015D400EE20E030E040E065
:10079A0050E0E1B3E360E1BB77DDC5DF6CDE82DD0B
:1007AA007FDEA8EEB3E08AD4789489D3A02F24DE22
:1007BA0044247724E4E6E415A8F4003E21F40CEE80
:1007CA0083D39F010DC00C3E21F402EE7DD3AF010D
:1007DA0007C000EE79D3DE01AE58BF4FED93FC930C
:1007EA00772444249CDEAE2FD9DEF0E0DE01AA5B3A
:1007FA00BF4FED93FC936CD3EBE0F0E0F0D30E2EF9
:10080A0067D3E0E0F0E0F1D3E02129F067D3A2E377
:10081A00B0E054D422C05CD3E0E0F0E0DAD3E521C2
:10082A0031F05CD35524A2E3B0E048D416C050D3CB
:10083A001D9751F4E0E0EAA7EBA7ECA7EDA7EEA716
:10084A00EFA7E8ABE9AB09C043D31E9719F4E1E07F
:10085A00EFA303C03DD31F9701F4DE01AC5BBF4F8A
:10086A000E945808E2E0F0E0EED3309759F5EBE049
:10087A00F0E0EAA3FBA3AAA1BBA100240A160B0677
:10088A00D4F4EAA1FBA133D3EA0FFB1F0F01EAA1BB
:10089A00FBA131972CD3AE0FBF1FED91FD91D00173
:1008AA00ED93FC9381E38A95F1F7EAA1FBA13197D5
:1008BA00EAA3FBA3E0CF20D3EAA7FBA70FD3A2E3C7
:1008CA00B0E0FCD3E8A9F9A9A8EEB3E09CD3BF0134
:1008DA00EEA5FFA5A4E6B0E096D36E0F7F1FECA5A8
:1008EA00FDA5AAE0B0E08FD3E60FF71FAAA5BBA526
:1008FA00EA0FFB1FDE01AE5BBF4FED93FC93DE01F7
:10090A00AE5BBF4F0E9458088CDEE2D2BEDEEFA17A
:10091A00F0E03097A9F4ACA5BDA5149754F4ACA5A2
:10092A00BDA500240A160B0624F4AAA5BBA51A978E
:10093A0009F005C0ECA5E150E883E3E0EFA3D8C0D5
:10094A00E130A0E0FA07E9F4DDD2A5E1B5E08ADCFE
:10095A00FE01E65BFF4FFA93EA93E0E3F1E0FA93D4
:10096A00EA93E8A5D3D2EDA5D1D2EAA9CFD28CE0F9
:10097A0014D26096D0D2DE01A65BBF4F73DCE0E0F2
:10098A00B6C0E230A0E0FA0709F058C0AAA5BBA594
:10099A001A9709F04FC0C3D2EA0FFB1FFA93EA93E2
:1009AA00EFE3F1E0FA93EA93FE01EC5BFF4F0E945A
:1009BA005208BCD2A1D2BAD2FE01E85BFF4F0E9414
:1009CA005208B4D2FE01E65BFF4F0E945208AED233
:1009DA00FE01E45BFF4F0E945208A8D2FE01E25BCF
:1009EA00FF4F0E945208A2D2FE01E05BFF4F0E9415
:1009FA0052089CD2FE01EE5AFF4F0E94520896D22C
:100A0A00FE01EC5AFF4F0E94520890D2FE01EA5AA8
:100A1A00FF4F0E9452088AD2FE01E85AFF4F0E94F5
:100A2A00520884D28CE2B9D1E09686D2E8E5EC93FA
:100A3A00E5E0EFA3AAE0B0E041D35AC0E330A0E07A
:100A4A00FA07C9F4E0E0EAA7EBA719DC5BD2A6E251
:100A5A00B5E008DCE2E0EFA36FD2AC91AF3451F419
:100A6A000EDC50D2A5E3B5E0FDDBA8EEB3E026D359
:100A7A00E1E0EFA33DC0E430A0E0FA0731F5ACA510
:100A8A00BDA5119721F4AAA5BBA51A9709F011C013
:100A9A0053D2EFE4EC93E8EBFBE0FBBDEABDA8E838
:100AAA00B3E10CD30CD2E1E0EFA3E0E0EAA7EBA7B5
:100ABA000BC0ACA5BDA5129721F4AAA5BBA51A9790
:100ACA0009F002C0E3E0EFA313C0E530A0E0FA07A3
:100ADA0079F4D5DB17D223D2AE0FBF1FC3DB1BD2EB
:100AEA00A2E4B5E0BFDBE0E0ECA7EDA7E4E0EFA30A
:100AFA0061CEFFCF50D29D015E811296ED91FC919D
:100B0A0011973097E9F0D9011ED28F01309759F029
:100B1A000230E0E01E0760F0F80131978F01D90139
:100B2A001496ED93FC93D901129612D23197508301
:100B3A00D901ED91FC911197FF230AF009D205C062
:100B4A00D901EFEFFFEFED93FC932CD2279608958E
:100B5A00BA93AA9326971FD210E0AC85BD85E0E030
:100B6A00F0E0ED93FC93EA89FB893196EA8BFB8BE3
:100B7A003197E4912E2FE03009F408C1E12FE030DB
:100B8A0031F4253211F411E001C0E8D1FEC0E130A0
:100B9A00A1F4253211F4E2D1F7C012E040E000E0FE
:100BAA002D3211F401E0F1C02B3211F44BE2EDC009
:100BBA00203211F440E2E9C002C0E23039F450E0D8
:100BCA0013E0203311F40068E0C003C0E33009F0F9
:100BDA00DCC0203310F02A3308F007C0AAE05A9F7D
:100BEA00502DE22FE0535E0FD0C0E22FE33639F4E6
:100BFA00BCD1E889F989A481AA93BDD1C5C0E337DC
:100C0A0029F4B3D1BED100D11E2F07C0E03749F471
:100C1A00ACD1B7D105D11E2F086002600F7730E042
:100C2A0037C0E43611F0E93611F4046002C0E53742
:100C3A0031F4ECE8F0E0EE83FF8315E00CC0E83510
:100C4A0011F4086003C0E83709F09EC0E6E9F0E055
:100C5A00EE83FF8314E002FF15C087D1A889B98902
:100C6A001496ED91FD91EA87FB87AB85AA2322F4BE
:100C7A00ACD1EA87FB874DE2403011F01F5F01C01B
:100C8A000B7F06C072D1A889B9895DD1EA87FB8733
:100C9A0000FD10C0151770F407FF08C002FF04C05A
:100CAA000B7F242F115001C020E301C020E256D14E
:100CBA005150F0CF312F01FF16C0303099F003FFA9
:100CCA0006C0EE81FF812591EE83FF8305C0AE81C8
:100CDA00BF812D91AE83BF8341D1503009F051506D
:100CEA003150EBCF48C020E3EE81FF81D2D1E887B3
:100CFA00F987EE81FF813296EE83FF83E885F985D5
:100D0A00AA85BB85AE17BF0750F02F5FA885B985A6
:100D1A00EA85FB85EA1BFB0BEA87FB87EFCF2A33C1
:100D2A0028F003FF02C0295F01C0295D04FD19C034
:100D3A00213320F4A885B985119709F409C05317FE
:100D4A0010F000FF01C011C020E207FF0AC020E333
:100D5A00006102FF06C00B7F4A930DD1503009F0A3
:100D6A005150FCD0503009F051503150A885B98506
:100D7A00129708F0B8CF00FF07C0503029F0515041
:100D8A00E0E2EA93F8D0F9CF10E0EDCEAC85BD856C
:100D9A00ED91FD9107D164960895FF92F82E26975A
:100DAA00FAD0FE010024EF0DF01D46855785042E6A
:100DBA00052A19F4EFEFFFEF23C0DE01189600248D
:100DCA00AF0DB01D8D0148875987E0E0EA87EB87B0
:100DDA00DE011C960024AF0DB01DED91FD91FA9332
:100DEA00EA931A930A93EFE7F5E0FA93EA93DE019E
:100DFA001C96AEDE9F01A885B985E0E0EC93F90167
:100E0A00D1D02C96FF900895BA93AA93A991B9913B
:100E1A00EE27FF276D91662311F03196FBCF0895D7
:100E2A00BA93AA93AA27BB27E991F99105900020C2
:100E3A0011F01196FBCFFD0108951A931A2FE09134
:100E4A0065000895E0936500E09165000895E1600A
:100E5A00E093650086EF8A95F1F71BBB86EF8A95CA
:100E6A00F1F7E0916500EE7FE09365000895A8E34D
:100E7A00D7D9A4E0DCC91A931A2F10937300E4E8B7
:100E8A00E09374000895E0936500DA011ECBA02F69
:100E9A00B0E0E4E0F0E0CFD00895EE0FEE0F0E2EB2
:100EAA00E02FF0E0A3E0B0E0DCD00895F0E0E25BF0
:100EBA00FA4FE081E0936200AAE0B0E0FFC0E6E604
:100ECA00F2E1FBBDEABD0895A02F96DAA02F3BCC34
:100EDA00DE01AA5BBF4F0E9458080895DE01AC5B91
:100EEA00BF4FED91FD913196FE93EE930895DE0189
:100EFA009A96EE0FFF1F0895FE01EA5BFF4F0E94CC
:100F0A0052080895E0E0EA93A0E096C9FF27662711
:100F1A007727CFD00895E1E0EA93A0E08DC9E88170
:100F2A00ABE0EA9FF001DE01119608956F2F660F7C
:100F3A00660B762FBED00895E881F0E0DE01949624
:100F4A00AE0FBF1F08951496ED91FC911197089565
:100F5A00ED91FD913196FE93EE9308952A93AD8516
:100F6A00BE85EF85F88909950895E889F989349746
:100F7A00E88BF98B0895AD85BE85EF85F8890995CB
:100F8A000895A889B9891496ED91FD91EE83FF839E
:100F9A00AE81BF8108955A934A933A932A931A933A
:100FAA000A9308955D814C813B812A8119810881C8
:100FBA000895AF93BF93DB01AC0FBD1F05900D924F
:100FCA008A95E1F7BF91AF910895F195E195F040C7
:100FDA000895EA17FB07E1E009F0EE270895AE1736
:100FEA00BF07E1E00CF0EE270895EA17FB07E1E0FE
:100FFA000CF0EE270895FA9FF02DEB9FF00DEA9F73
:10100A00E02DF10D089537D0F6DF0EF4DEDF0895F6
:10101A000024112490E1AA0FBB1F001C111C0E1AF8
:10102A001F0A18F40E0E1F1E01C0A1609A9599F7A7
:10103A00FD01D00108951FD0EBDF0EF4C6DF08953D
:10104A00E7DFFD010895E894B7FF04C0B195A195C3
:10105A00B0406894F7FDB9DFDBDFFD010EF4B5DFC0
:10106A000895E894F7FF02C0B0DF6894EA23FB23EF
:10107A000EF4ABDF0895E894F7FF02C0A6DF689488
:10108A00B7FF06C0B195A195B04000F8039400FAE5
:10109A0008950590F491E02D08950F920190F08142
:1010AA00E02D0F9008950F920D90BC91A02D0F90F6
:1010BA0008957A936A93FA93EA930895109639F009
:1010CA00A89586E69EE00197F1F71197C9F708956A
:00000001FF
