:080000000C9462000C94000056
:100008000C9400000C9400000C9400000C94000068
:100018000C9400000C9400000C9400000C94000058
:100028000C9400000C9400000C94B5000C94000093
:100038000C9400000C9400000C9400000C94000038
:100048000C9400000C9400000C9400000C94000028
:100058000C9400000C9400000C9400000C94000018
:100068000C9400000C9400000C9400000C94000008
:100078000C9400000C9400000C9400000C940000F8
:100088000C9400000000C0F9A4B0999282D8809026
:100098008883C4A1848E1F002F004F008F000000AA
:1000A8000000000000000000010005008C001000A6
:1000B80000058E00070010059E000000F894EE274A
:1000C800ECBBF1E0F5BFE5BFE0936C008DE0A2E08A
:1000D800BB27ED938A95E9F780E090E1A0E0B1E0D5
:1000E800ED930197E9F7E0EBF0E0859195910097A2
:1000F80061F0A591B59105901590BF01F0010590AB
:100108000D920197E1F7FB01F0CF8BBFEFEFEDBF49
:10011800E0E1EEBFC0E0D5E00C949B01E0EFE2B96E
:10012800EFEFE0936100EFE0E4BBE0E1E09364000F
:10013800E0E2E7BBEFEFE5BB0895E2E8EFBDEAE1F7
:10014800EEBDE0E0F0E0FDBDECBDEFEFFFE8F7BD90
:10015800E6BDEDECFAE0FBBDEABDE7B7E061E7BF5D
:10016800089500001895F0D19D0100E010E00217F5
:10017800130730F485E08A95F1F70F5F1F4FF7CF2B
:10018800EAD124960895DED1AD0130E0FA01A0E16C
:10019800B7E21DD23E2F00E010E0E32FD801F0E0D7
:1001A800AE17BF0758F4E0916500E061AAD1E0916D
:1001B8006500EF7EA6D10F5F1F4FEFCFB5C0C2D14C
:1001C8000EEF10E030E020E040E050E030E0343066
:1001D800A0F505BB85E08A95F1F7E3B3E07F2E2F04
:1001E800203039F1F0E0E031A0E0FA0729F4E4E04A
:1001F800E39FF00131961AC0E032A0E0FA0729F433
:10020800E4E0E39FF001329611C0E034A0E0FA0781
:1002180029F4E4E0E39FF001339608C0E038A0E059
:10022800FA0729F4E4E0E39FF0013496AF01E42FE4
:100238007BC0000F111F3F5FCACF76C01A930A9385
:100248000A2F10E0003011F410E034C0A02FBB27B3
:10025800E4E0F0E0D7D1309721F457D1E45F1E2FC6
:1002680029C053D1309729F450D155D1E00D1E2F14
:1002780021C04BD1E130A0E0FA0731F446D14BD18F
:10028800A02DAE0FA15015C040D1E230A0E0FA0772
:1002980031F43BD140D1A02DAE0FA2500AC035D1C8
:1002A800E330A0E0FA0731F430D135D1A02DAE0FFC
:1002B800A3501A2F1B3019F410E0E1E05E2EE12F55
:1002C8000991199108953ED1AD01E8EEF3E07FD18F
:1002D8002E2FDA01E8EEF3E092D1DF01E4E6F0E058
:1002E80076D13E2FDA01E4E6F0E089D1DF01EAE0D9
:1002F800F0E06DD10E2FDA01EAE0F0E080D11E2F98
:10030800E0911005E3B9E12F0FD1E0911205E3B9AF
:10031800E02F0AD1E0911405E3B9E32F05D1E0916C
:100328001605E3B9E22F00D114D1269608952A972D
:100338008AE060E070E0E6EAF0E012D100E010E068
:1003480020E030E040E050E0F8DEE8DE38DFAE2FB5
:1003580075DF0E2F1127D801EAE0F0E01FD10E2E2D
:10036800E0E0F0E021D1E02111F0E7D047C0D8016A
:10037800E0E0F0E00DD1E52139F02F5F3F4F552443
:10038800A2E3B0E09BD23AC0EDE0F0E0E017F1075D
:1003980051F4E0E0EA83EB83EC83ED83EE83EF83B3
:1003A800E887E9872BC0EEE0F0E0E017F10731F5C8
:1003B800DA01E8E6F1E026D1E883F983A881B9817A
:1003C800A43BE0E0BE0734F0E881F981E856F1404B
:1003D800E883F983E881F9816F2F660F660B762F22
:1003E8009DD1A7EEBBEF83E291E41AD2A0E0B0ED75
:1003F8008CE295E4C6D159D1FBBDEABDD901E2E052
:10040800F0E000D13097C1F4EE81FF81E887F987E9
:10041800A2E3B0E053D2EC81FD81EE83FF83A2E337
:10042800B0E04CD2EA81FB81EC83FD83A2E3B0E02B
:1004380045D20A831B8381D0E885F985A8EEB3E00D
:10044800C1D0BF01EE81FF81A4E6B0E0BBD06E0F42
:100458007F1FEC81FD81AAE0B0E0B4D0E60FF71F62
:10046800AA81BB81EA0FFB1FAF01DA012CDFF8017B
:10047800E130A0E0FA0721F4A4E7B7E084DE3FC04A
:10048800E230A0E0FA0721F4A4EAB6E07CDE37C047
:10049800E330A0E0FA0721F4ABEEB5E074DE2FC03C
:1004A800E430A0E0FA0721F4A8E9B5E06CDE27C043
:1004B800E530A0E0FA0721F4ABEFB4E064DE1FC03A
:1004C800E630A0E0FA0721F4A0E7B4E05CDE17C04C
:1004D800E730A0E0FA0721F4A4EFB3E054DE0FC040
:1004E800E830A0E0FA0721F4AAEBB3E04CDE07C03D
:1004F800E930A0E0FA0719F4A2E5B3E044DE26CF1C
:10050800FFCFE0936500DA012ECEA02FB0E0E4E043
:10051800F0E070D00895EE0FEE0F0E2EE02FF0E011
:10052800A3E0B0E07DD00895F0E0E050FB4FE0811B
:10053800E0936200AAE0B0E0C1C12F5F3F4FA2E3A1
:10054800B0E0BCC15A934A933A932A931A930A93F8
:1005580008955D814C813B812A8119810881089524
:10056800AF93BF93DB01AC0FBD1F05900D928A9529
:10057800E1F7BF91AF910895F195E195F0400895A5
:10058800F09560957095E195FF4F6F4F7F4F0895F7
:10059800EA17FB07E1E009F0EE270895AE17BF0759
:1005A800E1E00CF0EE270895EA17FB07E1E00CF014
:1005B800EE270895FA9FF02DEB9FF00DEA9FE02DAE
:1005C800F10D089537D0F6DF0EF4D6DF0895002434
:1005D800112490E1AA0FBB1F001C111C0E1A1F0A40
:1005E80018F40E0E1F1E01C0A1609A9599F7FD011F
:1005F800D00108951FD0EBDF0EF4BEDF0895E7DFCA
:10060800FD010895E894B7FF04C0B195A195B040E5
:100618006894F7FDB1DFDBDFFD010EF4ADDF08956F
:10062800E894F7FF02C0A8DF6894EA23FB230EF4DE
:10063800A3DF0895E894F7FF02C09EDF6894B7FF30
:1006480006C0B195A195B04000F8039400FA08954A
:10065800552342F4503811F4E0FF04C03196691F65
:10066800791F6BF050E8572711F45F93C8C05F3FBC
:1006780031F0660F000C57956795752F08955F93B5
:1006880000200AF0C7C0C0C050E8192E1522880FF4
:10069800991F9527550F879550E8072E0522660F55
:1006A800771F7527550F67950895689401C0E894DA
:1006B8005F93F2DF703818F07F3F08F4A0C056E16E
:1006C800571BAAF4519558300EF4593030F0EFEF1B
:1006D800FFEF6FEF7FE777F91AC077275523B9F057
:1006E800EE0FFF1F661F771F5A95D1F710C07727A7
:1006F800583028F0EF2FF62F672F5850F9CF552391
:1007080031F076956795F795E7955A95D1F70020DA
:100718000AF436DF5F910895689401C0E894309731
:1007280060407040B1F0002426F0772312F4009462
:1007380027DF172E7EE1112032F07A95EE0FFF1F8A
:10074800661F111CF9CFEF2FF62F612D5F938ADFFB
:100758005F9108954F93AF01FD01DA01AB01BC0130
:10076800CA01402D012C142E4F910895EA0FFB1F4A
:10077800681F0895E095F0956095EF5FFF4F6F4F04
:1007880008955F9381DF903839F1703821F1572F40
:10079800591B2BF112F4DEDFFACF583118F0AA27D3
:1007A800BB278827583028F0AB2FB82F88275850F8
:1007B800F9CF552329F08695B795A7955A95D9F776
:1007C800502D512572F0D2DF38F46795F795E795EB
:1007D800739513F41FC0BEDF45DF5F910895D8F706
:1007E800FBCFEA1BFB0B680B51F010F40094C2DF3F
:1007F800662392F3EE0FFF1F661F7A95CBF7EE275D
:10080800FF27BF015F910895EFEFFFEF6FE77FEFDD
:100818005F910895EFEFFFEF6FE77FE75F9108952E
:100828005F9332DF703859F3903849F30124089404
:10083800791F23F424F300203AF3ECCF0F921F938F
:100848002F933F934F93112722279927689FA00141
:100858008F9F302D410D591F6B9F300D411D591F22
:100868008E9F27D0BF9F25D06A9F23D0BE9F1DD0C3
:10087800AF9F1BD0AE9F110D291F391F491F591F4C
:10088800E32FF42F652F522F4F913F912F911F91F6
:100898000F9066232AF0550FEE1FFF1F661F02C038
:1008A80073954BF2D5DE5F910895100D211D391F08
:1008B80002C0200D311D491F591F0895109639F0A7
:1008C800A89586E69EE00197F1F71197C9F7089574
:00000001FF
