:0E0000000C9446000C9400000C9400000C942C
:10000E0000000C9400000C9400000C9400000C9462
:10001E0000000C9400000C9400000C9400000C9452
:10002E0000000C9400000C9400000C9400000C9442
:10003E0000000C9400000C9400000C9400000C9432
:10004E0000000C9400000C9400000C9400000C9422
:10005E0000000C9400000C9400000C9400000C9412
:10006E0000000C9400000C9400000C9400000C9402
:10007E0000000C9400000C9400000C940000F89406
:10008E00EE27ECBBF1E0F5BFE5BFE0936C008DE031
:10009E00A2E0BB27ED938A95E9F780E090E1A0E01E
:1000AE00B1E0ED930197E9F78BBFEFEFEDBFE0E124
:1000BE00EEBFC0E0D5E00C941401E2E3E0937000D3
:1000CE00E4E0E0937400E0E0E09371000895D2D094
:1000DE003A2F00E010E0E0917400E07851F4D8017E
:1000EE000F5F1F4FA13DE7E0BE0710F0E1E039C002
:1000FE00F2CFE0917100E87F3E1711F0E2E031C0DF
:10010E002FC0E4EAE0937400A8E00EC0A4D0A8E1EA
:10011E0017C0A1D0A8E214C0E4E9E09374000895DA
:10012E00E4EAE0937400A0E1D2DF08951A931A2F47
:10013E00E12FE160E0937300E4E8E0937400A0E443
:10014E00C6DF1991089596D09D0110E0E4E8E09382
:10015E007400A8E5BCDF1E2FE0917300D901EC936B
:10016E00E0E08FD02496089583D09D015E814F816B
:10017E0000E0C7DF0E2F003009F025C0A42FC6DF28
:10018E000E2F003009F01FC0A52FC3DF0E2F003039
:10019E0009F019C0C5DF0E2F003009F014C0A42FCE
:1001AE00C5DF0E2F003009F00EC0ADB7BEB71F93DE
:1001BE00CADF1F910E2F003009F005C0ADDFE12F11
:1001CE00D901EC93E0E05BD02896089553D00A2F26
:1001DE003C812D8110E095DF1E2F103081F4A22F6F
:1001EE0095DF1E2F103059F4A32F93DF1E2F1030E2
:1001FE0031F4A02F8EDF1E2F103009F48DDFE12F8A
:10020E0040D026960895E0E4EA93E0E0EA93AFE06A
:10021E00DDDFAAE0B0E03AD0089520E04EDFF3DF54
:10022E0022D0ADB7BEB71F939FDF1F912E2F203068
:10023E0081F4312FE32FE295E07FEF600E2FA1E0E6
:10024E00B0E024D010D0A02FC1DF2E2FA4E6B0E056
:10025E001DD0E6CFFFCF1A931A2F10937300E4E848
:10026E00E09374000895E0E4EA93E9E0EA930895D8
:10027E005A934A933A932A931A930A9308955D8157
:10028E004C813B812A81198108810895109639F09D
:10029E00A89586E69EE00197F1F71197C9F70895A4
:00000001FF
