:0C0000000C947C000C9400000C94000098
:10000C000C9400000C9400000C9400000C94000064
:10001C000C9400000C9400000C9400000C94000054
:10002C000C9400000C9400000C9400000C94000044
:10003C000C945E010C9400000C9400000C940000D5
:10004C000C9400000C9400000C9400000C94000024
:10005C000C9400000C9400000C9400000C94000014
:10006C000C9400000C9400000C9400000C94000004
:10007C000C9400000C9400000C9400000C940000F4
:10008C002020202020202020202020202020202064
:10009C0020202020004D65617375726564204469D1
:1000AC0073742E3D20004552522020202020202009
:1000BC00004D6561737572656420446973742E29F3
:1000CC003D20002530316420202530336420636DC1
:1000DC000000150000058C0011001505A1000B0097
:1000EC002605B20012003105BD000000F894EE2781
:1000FC00ECBBF1E0F5BFE5BFE0936C008DE0A2E056
:10010C00BB27ED938A95E9F780E090E1A0E0B1E0A0
:10011C00ED930197E9F7EEEDF0E08591959100975D
:10012C0061F0A591B59105901590BF01F001059076
:10013C000D920197E1F7FB01F0CF8BBFEFEFEDBF15
:10014C00E0E1EEBFC0E0D5E00C94F201E2E3E09315
:10015C007000E4E0E0937400E0E0E0937100089537
:10016C00D1D33A2F00E010E0E0917400E07851F424
:10017C00D8010F5F1F4FA13DE7E0BE0710F0E1E093
:10018C003AC0F2CFE0917100E87F3E1711F0E2E047
:10019C0032C030C0E4EAE0937400A8E010C03DD354
:1001AC00A8E1DEDFE4C039D3A8E2DADFE0C0E4E99D
:1001BC00E09374000895E4EAE0937400A0E1D0DFCA
:1001CC0008951A931A2FE12FE160E0937300E4E88D
:1001DC00E0937400A0E4C4DFCAC094D39D0110E086
:1001EC00E4E8E0937400A8E5BBDF1E2FE0917300F8
:1001FC00D901EC93E0E08DD324960895EFEFEABBA0
:10020C00EFE1E0936400089510D3E46013D3ED7F25
:10021C0011D315D3ACC009D3EB7F0CD3ED7F0AD32C
:10022C000ED3A5C01A931A2FBB27D8D3A0C01A93EC
:10023C000A931A2F0A81A0E40A02F001E10FE06888
:10024C00AE2FE9DF19810881239608951A931A2F8E
:10025C00DBDFA1E0B0E0C2D38AC01A930A938D0110
:10026C00D801EC91E03029F0AC91F0DF0F5F1F4F1B
:10027C00F7CF099119910895A1E0CDDFA2E0D2DF6B
:10028C000895BCDFECD2EBD2EAD2AEE0C4DFA4E03E
:10029C00C9DFA6E0C0DFA4E0C5DFEEDF0895EFE024
:1002AC00E3BFE0E0E2BFEEE0E3BDE2E0E7BF0895CC
:1002BC00EA93EFB753944394EFBFE991189522D387
:1002CC000A2F3C812D8110E065DF1E2FA22F67DFE6
:1002DC001E2F103009F00EC0A32F65DF1E2F10301B
:1002EC0009F008C0A02F5FDF1E2F103009F002C0EC
:1002FC005EDFE0E00ED32696089502D39D015E8169
:10030C004F8110E000E046DF0E2FA42F48DF0E2FA8
:10031C00003009F022C0A52F46DF0E2F003009F067
:10032C001CC049DF0E2FC39A003009F016C0A42F51
:10033C0048DF0E2FC49A003009F00FC0ADB7BEB71E
:10034C001F934BDF1F910E2FC59A003009F005C08B
:10035C002EDFE12FD901EC93E0E0D9D22896089555
:10036C001A931A2F1A93E0E0EA93A1E5A8DF1991EA
:10037C000895C6D29D015E8100E05A93E2E0EA93B3
:10038C00ADB7BEB71F93B9DF1F910E2F003011F020
:10039C00F0E09FC0F12FE0E0D901ED93FC935A936C
:1003AC00E3E0EA93ADB7BEB71F93A7DF1F910E2F03
:1003BC00003011F0F0E08DC0F9010F01DF01ED917B
:1003CC00FD91DF01E12FF0E0EA2BFB2BD001ED9347
:1003DC00FC93E02FF0E07DC0A89710EE40E050E0D9
:1003EC0000E0E1B3E360E1BB4CDF59DFAFDEA8EE28
:1003FC00B3E0F4D27894A12FB3DF55244424E2E483
:10040C00E515D0F51A93ADB7BEB711973F932F935F
:10041C00B0DF2F913F910E2F003049F024D2A5E18F
:10042C00B5E01BDF24D2A6E2B5E017DF1CC0E4E682
:10043C00E415C8F418D2A1E3B5E00FDFFE01FA937E
:10044C00EA93EFECF0E0FA93EA93FA0114D2C1D2FA
:10045C00F90166277727BDD288E08FD12C9607D279
:10046C00DE01FBDE4424A12F7BDF5524DA0111963B
:10047C00EAE0F0E096D2AF01C2CFFFCF41D29D01AE
:10048C005E811296ED91FC9111973097E9F0D901AC
:10049C00F7D18F01309759F00230E0E01E0760F081
:1004AC00F80131978F01D9011496ED93FC93D90182
:1004BC001296EBD131975083D901ED91FC911197A4
:1004CC00FF230AF0E2D105C0D901EFEFFFEFED9366
:1004DC00FC931DD227960895BA93AA932B9710D20A
:1004EC0010E0A989BA89E0E0F0E0ED93FC93EF8984
:1004FC00F88D3196EF8BF88F3197E4912E2FE030F9
:10050C0009F434C1E12FE03031F4253211F411E05B
:10051C0001C0C1D12AC1E130A1F4253211F4BBD103
:10052C0023C112E040E000E02D3211F401E01DC1C6
:10053C002B3211F44BE219C1203211F440E215C1F7
:10054C0002C0E23039F450E013E0203311F40068BB
:10055C000CC102C0E33091F4203310F02A3308F0C0
:10056C0007C0AAE05A9F502DE22FE0535E0FFDC04A
:10057C002C3619F4026015E0F8C003C0E53009F020
:10058C00F4C0E22FE33639F48DD1ED89FE89A481D4
:10059C00AA938ED1E9C0E33729F484D18FD124D129
:1005AC001E2F07C0E03751F47DD188D129D11E2FE1
:1005BC0008600F77E0E0E88B30E05DC0E43611F0C6
:1005CC00E93611F4046002C0E53791F4EAE0E88BF7
:1005DC0001FF07C0E0E0FAEC6AE97BE379D11AE0AD
:1005EC001FC0E0E1F7E260E070E072D115E018C0E6
:1005FC00E83511F4086003C0E83709F0B5C0E0E154
:10060C00E88B01FF07C0E0E0F0E060E070E160D152
:10061C0018E006C0E0E0F0E160E070E059D114E0D1
:10062C0001FF06C03FD1AD89BE891496CCD10EC056
:10063C0002FF06C037D1AD89BE8922D11CD106C0BC
:10064C0031D1AD89BE891CD166277727EC87FD8710
:10065C006E877F8702FF0FC0AF85AA233AF4EC8523
:10066C00FD856E857F855ED138D14DE2403011F02D
:10067C001F5F01C00B7F00FD10C0151770F407FF42
:10068C0008C002FF04C00B7F242F115001C020E3CF
:10069C0001C020E200D15150F0CF312FE889E03079
:1006AC00B1F4303099F003FF06C0EE81FF81259143
:1006BC00EE83FF8305C0AE81BF812D91AE83BF83D6
:1006CC00EAD0503009F051503150EBCF44C00AD130
:1006DC0044D12E2F2A3030F003FF02C0295C01C018
:1006EC00295A01C0205D04FD1EC0213348F403D1FA
:1006FC00A130E0E0BE07E0E08E07E0E09E0709F4E1
:10070C0009C0531710F000FF01C011C020E207FF11
:10071C000AC020E3006102FF06C00B7F4A93C8D0D9
:10072C00503009F05150B7D0503009F05150315081
:10073C00D9D045D1D2D0E889DED0FF2766277727DC
:10074C000CD1C6D0E885F9856A857B8530976040E9
:10075C00704009F0BCCF00FF07C0503029F0515059
:10076C00E0E2EA93A5D0F9CF10E0C1CEA989BA890D
:10077C00ED91FD91CCD069960895FF92F82E2697B5
:10078C00BFD0FE010024EF0DF01D46855785042EC9
:10079C00052A19F4EFEFFFEF23C0DE0118960024B1
:1007AC00AF0DB01D8D0148875987E0E0EA87EB87D4
:1007BC00DE011C960024AF0DB01DED91FD91FA9356
:1007CC00EA931A930A93E4E4F2E0FA93EA93DE01D3
:1007DC001C9682DE9F01A885B985E0E0EC93F901B7
:1007EC0096D02C96FF900895BA93AA93A991B9919B
:1007FC00EE27FF276D91662311F03196FBCF0895FC
:10080C00BA93AA93AA27BB27E991F99105900020E6
:10081C0011F01196FBCFFD0108951A931A2F109326
:10082C007300E4E8E093740008951A931A2FE09192
:10083C0065000895E0936500E09165000895E1601E
:10084C00E093650086EF8A95F1F71BBB86EF8A95DE
:10085C00F1F7E0916500EE7FE09365000895A8E361
:10086C00DADCA4E0DFCCE0E0EA93A0E0E0CCE1E06D
:10087C00EA93A5E0DCCC6F2F660F660B762F0895FC
:10088C001496ED91FC9111970895ED91FD9131968F
:10089C00FE93EE9308952A93AA89BB89EC89FD896E
:1008AC0009950895ED89FE893497ED8BFE8B08959B
:1008BC00AA89BB89EC89FD8909950895AD89BE8902
:1008CC001496ED91FD91EE83FF83AE81BF81089567
:1008DC00E887F9876A877B870895EC87FD876E87A1
:1008EC007F870895E885F9856A857B85AC85BD850C
:1008FC008E859F850895A885B9858A859B850895E1
:10090C005A934A933A932A931A930A9308955D81C2
:10091C004C813B812A81198108810895F195E195DB
:10092C00F0400895F09560957095E195FF4F6F4FED
:10093C007F4F08950024112490E1AA0FBB1F001CC7
:10094C00111C0E1A1F0A18F40E0E1F1E01C0A160F6
:10095C009A9599F7FD01D00108953F934F935F93BA
:10096C0000241124A00130E2AA0FBB1F881F991F7D
:10097C00001C111C441F551F0E1A1F0A460B570B47
:10098C0028F40E0E1F1E461F571F01C0A1603A957A
:10099C0059F7FD01BC01D001CA015F914F913F9104
:1009AC000895E894B7FF04C0B195A195B040689440
:1009BC00F7FDB4DFBFDFFD010EF4B0DF0895CDDF2E
:1009CC00FD01BC010895ED91FD916D917C91139702
:1009DC0008957A936A93FA93EA930895109639F0EE
:1009EC00A89586E69EE00197F1F71197C9F708954F
:00000001FF
