:0E0000000C945C000C9400000C9400000C9416
:10000E0000000C9400000C9400000C9400000C9462
:10001E0000000C9400000C9400000C9400000C9452
:10002E0000000C9400000C9400000C9400000C9442
:10003E0000000C9400000C94E4000C9400000C944E
:10004E0000000C9400000C9400000C9400000C9422
:10005E0000000C9400000C9400000C9400000C9412
:10006E0000000C9400000C9400000C9400000C9402
:10007E0000000C9400000C9400000C940000010091
:10008E002020202020202020202020202020202062
:10009E00202020200000010007008C001500000524
:1000AE008E001000150593000000F894EE27ECBBAF
:1000BE00F1E0F5BFE5BFE0936C008DE0A2E0BB2759
:1000CE00ED938A95E9F780E090E1A0E0B1E0ED9341
:1000DE000197E9F7E4EAF0E085919591009761F0D8
:1000EE00A591B59105901590BF01F00105900D9267
:1000FE000197E1F7FB01F0CF8BBFEFEFEDBFE0E132
:10010E00EEBFC0E0D5E00C94F900EFEFEABBEFE1F3
:10011E00E093640008958ED0E46091D0ED7F8FD08F
:10012E0093D020C087D0EB7F8AD0ED7F88D08CD043
:10013E0019C01A931A2FBB2714C01A930A931A2F99
:10014E000A81A0E40A02F001E10FE068AE2FEADFB7
:10015E0019810881239608951A931A2FDCDFA1E0E6
:10016E00B0E08CD0199108951A930A938D01D8019D
:10017E00EC91E03029F0AC91EFDF0F5F1F4FF7CF1E
:10018E00099119910895A1E0CDDFA2E0D2DF089583
:10019E00BCDF6AD069D068D0AEE0C4DFA4E0C9DFAE
:1001AE00A6E0C0DFA4E0C5DFEEDF0895BB9AE7EC62
:1001BE00EDB9E0E0EEB978940895EA93EFB7EA93DB
:1001CE00EFB1ED3029F4E2E09E2E8FB0662406C02A
:1001DE00EFB1E03019F0E1E09E2E8FB0E991EFBF64
:1001EE00E9911895FF2411E000E066249924DEDFE2
:1001FE00CFDFE92DF0E0E130A0E0FA0729F4A82DD9
:10020E00ABDF992463940CC0E230A0E0FA0741F40E
:10021E00E1E0FE262DD0A5E1B5E0A6DF29D0992498
:10022E00E0E1E61529F4E0E0EA93A0E086DF66243B
:10023E00E0CFFFCF1A931A2FE09165000895E09357
:10024E006500E09165000895E160E093650086EF3A
:10025E008A95F1F71BBB86EF8A95F1F7E091650061
:10026E00EE7FE09365000895A8E35CDFA4E061CF24
:10027E00E0E0F0FCE1E0EA93A0E05FCF109639F009
:10028E00A89586E69EE00197F1F71197C9F70895B4
:00000001FF
