:020000000C945E
:100002006C000C9400000C9400000C9400000C9402
:1000120000000C9400000C9400000C9400000C945E
:1000220000000C9400000C9400000C9400000C944E
:1000320000000C9400000C9400000C9400000C943E
:1000420000000C9400000C9400000C9400000C942E
:1000520000000C9400000C9400000C9400000C941E
:1000620000000C9400000C9400000C9400000C940E
:1000720000000C9400000C9400000C9400000C94FE
:1000820000000C9400000C940000020020202020AC
:10009200202020202020202020202020202020205E
:1000A2000049324320536C61766520496E697400C1
:1000B20052656365697665642D3E20000100050086
:1000C2008C00150000058E000F001505A3000C0022
:1000D2002405B2000000F894EE27ECBBF1E0F5BF76
:1000E200E5BFE0936C008DE0A2E0BB27ED938A951B
:1000F200E9F780E090E1A0E0B1E0ED930197E9F744
:10010200EEEBF0E085919591009761F0A591B591A4
:1001120005901590BF01F00105900D920197E1F74E
:10012200FB01F0CF8BBFEFEFEDBFE0E1EEBFC0E030
:10013200D5E00C944D01E2E3E0937000E4E0E0933B
:100142007400E0E0E09371000895EED03A2F00E0F1
:1001520010E0E0917400E07851F4D8010F5F1F4F76
:10016200A13DE7E0BE0710F0E1E042C0F2CFE0912E
:100172007100E87F3E1711F0E2E03AC038C01A93EE
:100182001A2F1093720064C0E4ECE0937400A0E6AE
:1001920004C0E4ECE0937400A0EAD7DF0895C4D071
:1001A2009D0110E0E4ECE0937400A0E8CEDF1E2F86
:1001B200103009F01DC0E091730017C0B5D09D0149
:1001C20010E0E2DF1E2F103009F012C0ADB7BEB74B
:1001D2000F93E5DF0F911E2F103009F009C0D9DF10
:1001E2001E2F103009F004C0E02FD901EC93E0E09B
:1001F200A0D024960895EFEFEABBEFE1E09364000C
:10020200089574D0E46077D0ED7F75D079D020C0A6
:100212006DD0EB7F70D0ED7F6ED072D019C01A9383
:100222001A2FBB2714C01A930A931A2F0A81A0E42B
:100232000A02F001E10FE068AE2FEADF19810881BE
:10024200239608951A931A2FDCDFA1E0B0E076D04E
:10025200199108951A930A938D01D801EC91E03017
:1002620029F0AC91EFDF0F5F1F4FF7CF0991199182
:100272000895A1E0CDDFA2E0D2DF0895BCDF50D027
:100282004FD04ED0AEE0C4DFA4E0C9DFA6E0C0DFAD
:10029200A4E0C5DFEEDF089510E02AE030E0EEDFF3
:1002A200A5E1B5E0D7DFE1E0EA93A0E0BCDFA4E29C
:1002B200B5E0D0DF44E050E03EDFA52D60DFADB712
:1002C200BEB71F937BDF1F91E03041F4E1E0EA9378
:1002D200A22FA9DFA12FB6DF2F5F3F4F2031E0E031
:1002E2003E0714F02AE030E0EACFFFCF1A931A2F2C
:1002F200E09165000895E0936500E091650008953E
:10030200E160E093650086EF8A95F1F71BBB86EF0B
:100312008A95F1F7E0916500EE7FE093650008951C
:10032200A8E376DFA4E07BCF3A932A931A930A9349
:1003320008953B812A81198108810895109639F028
:10034200A89586E69EE00197F1F71197C9F70895FF
:00000001FF
