:0E0000000C9446000C9400000C9400000C942C
:10000E0000000C9400000C9400000C9400000C9462
:10001E0000000C9400000C9400000C9400000C9452
:10002E0000000C9400000C9400000C9400000C9442
:10003E0000000C9400000C9400000C9400000C9432
:10004E0000000C9400000C9400000C9400000C9422
:10005E0000000C9400000C9400000C9400000C9412
:10006E0000000C9400000C9400000C9400000C9402
:10007E0000000C9400000C9400000C940000F89406
:10008E00EE27ECBBF1E0F5BFE5BFE0936C008DE031
:10009E00A2E0BB27ED938A95E9F780E090E1A0E01E
:1000AE00B1E0ED930197E9F78BBFEFEFEDBFE0E124
:1000BE00EEBFC0E0D5E00C941401E2E3E0937000D3
:1000CE00E4E0E0937400E0E0E093710008951AD14B
:1000DE003A2F00E010E0E0917400E07851F4D8017E
:1000EE000F5F1F4FA13DE7E0BE0710F0E1E039C002
:1000FE00F2CFE0917100E87F3E1711F0E2E031C0DF
:10010E002FC0E4EAE0937400A8E00EC0DED0A8E1B0
:10011E0017C0DBD0A8E214C0E4E9E09374000895A0
:10012E00E4EAE0937400A0E1D2DF08951A931A2F47
:10013E00E12FE160E0937300E4E8E0937400A0E443
:10014E00C6DF19910895DED09D0110E0E4E8E0933A
:10015E007400A8E5BCDF1E2FE0917300D901EC936B
:10016E00E0E0D7D024960895CBD09D015E814F81DB
:10017E0000E0C7DF0E2F003009F025C0A42FC6DF28
:10018E000E2F003009F01FC0A52FC3DF0E2F003039
:10019E0009F019C0C5DF0E2F003009F014C0A42FCE
:1001AE00C5DF0E2F003009F00EC0ADB7BEB71F93DE
:1001BE00CADF1F910E2F003009F005C0ADDFE12F11
:1001CE00D901EC93E0E0A3D0289608959BD00A2F96
:1001DE003C812D8110E095DF1E2F103081F4A22F6F
:1001EE0095DF1E2F103059F4A32F93DF1E2F1030E2
:1001FE0031F4A02F8EDF1E2F103009F48DDFE12F8A
:10020E0088D026960895E0E4EA93E0E0EA93AFE022
:10021E00DDDFAAE0B0E08AD0089520E04EDFF3DF04
:10022E005CD0ADB7BEB71F939FDF1F912E2F20302E
:10023E0009F049C0312FE32FE295E07FEF600E2FDA
:10024E00A1E0B0E073D0E02FF0E0EF3EA0E0FA07BF
:10025E0069F443D0E52FAFE745D0E52FAFEB42D0A1
:10026E00E52FAFED3FD0E52FAFEE28C0EF3DA0E07C
:10027E00FA0759F450E0543038F42FD0E52FAFEE92
:10028E004DD038D05F5FF7CF1BC0EF3BA0E0FA0731
:10029E0039F423D0E52FAFE525D0E52FAFEA0EC018
:1002AE00EF37A0E0FA0739F418D0E52FAFEF1AD0E8
:1002BE00E52FAFE003C011D0E52FAFEF2FD01AD04E
:1002CE00A4E6B0E033D0ACCFFFCF1A931A2F109321
:1002DE007300E4E8E09374000895E0E4EA93E9E043
:1002EE00EA9308951BD0AE2F71DF2E2FA4E6B0E057
:1002FE001DD0F3CFAE2F6ADF2E2FA4E6B0E016C0CE
:10030E005A934A933A932A931A930A9308955D81C6
:10031E004C813B812A81198108810895EE230E2E8E
:10032E00EA2F19F0EE0F0A94E9F70895109639F0B6
:10033E00A89586E69EE00197F1F71197C9F7089503
:00000001FF
