:080000000C9473000C94000045
:100008000C9400000C9400000C9400000C94000068
:100018000C9400000C9400000C9400000C94000058
:100028000C9400000C9400000C9400000C94000048
:100038000C9400000C9400000C9400000C94000038
:100048000C9400000C9400000C9400000C94000028
:100058000C9400000C9400000C9400000C94000018
:100068000C9400000C9400000C9400000C94000008
:100078000C9400000C9400000C9400000C940000F8
:100088000C940000021505002020202020202020AC
:10009800202020202020202020202020006D696E94
:1000A80067797500493243204D6173746572204940
:1000B8006E69740053656E64202D3E2000000300B5
:1000C80005008C0015000005900007001505A50027
:1000D80010001C05AC0009002C05BC000000F894B9
:1000E800EE27ECBBF1E0F5BFE5BFE0936C008DE0D7
:1000F800A2E0BB27ED938A95E9F780E090E1A0E0C4
:10010800B1E0ED930197E9F7E6ECF0E08591959180
:10011800009761F0A591B59105901590BF01F00188
:1001280005900D920197E1F7FB01F0CF8BBFEFEF40
:10013800EDBFE0E1EEBFC0E0D5E00C944401E2E39E
:10014800E0937000E4E0E0937400E0E0E093710075
:10015800089522D13A2F00E010E0E0917400E07891
:1001680051F4D8010F5F1F4FA13DE7E0BE0710F023
:10017800E1E009C0F2CFE0917100E87F3E1711F08D
:10018800E2E001C0E0E00DD124960895E4EAE093AE
:100198007400A8E0DEDF0895D2D0A8E1DADF4CC011
:1001A800CED0A8E2D6DF48C0E4E9E0937400089511
:1001B800F3D00A2F3C8110E0E9DF1E2F103059F4EC
:1001C800A02FEADF1E2F103031F4A32FE9DF1E2FF6
:1001D800103009F4E9DFE12FE4D025960895EFEF18
:1001E800EABBEFE1E09364000895B1D0E460B4D0D5
:1001F800ED7FB2D0B6D020C0AAD0EB7FADD0ED7FD6
:10020800ABD0AFD019C01A931A2FBB2714C01A93BA
:100218000A931A2F0A81A0E40A02F001E10FE068AC
:10022800AE2FEADF19810881239608951A931A2FB1
:10023800DCDFA1E0B0E0BAD0199108951A930A93CF
:100248008D01D801EC91E03029F0AC91EFDF0F5F20
:100258001F4FF7CF099119910895A1E0CDDFA2E0D2
:10026800D2DF0895BCDF8DD08CD08BD0AEE0C4DF58
:10027800A4E0C9DFA6E0C0DFA4E0C5DFEEDF089593
:1002880010E000E020E030E0EDDFACE1B5E0D6DFE3
:10029800E1E0EA93A0E0BBDFACE2B5E0CFDFE0E06D
:1002A800E7BB4DDFE6B30E2FF0E0E73FA0E0FA072B
:1002B80009F443C0EB3FA0E0FA07D1F466D020E090
:1002C80030E02630E0E03E0794F4A4EFB1E06ED0D1
:1002D800F901E60DF71DA081A9DFF901E60DF71D6B
:1002E800E081EA93A52D64DF2F5F3F4FEACF25C059
:1002F800ED3FA0E0FA07B1F448D0A12FAF5B96DF3D
:10030800E12F1F5FEF5BEA93A52D52DFE03049F440
:10031800E12FF0E0EF5BFF4FEB35A0E0FA070CF0C0
:1003280010E00BC0EE3FA0E0FA0739F42ED0A1E4AC
:100338007DDFE1E4EA93A52D3BDFB4CFFFCF1A932D
:100348001A2F10937300E4E8E093740008951A9349
:100358001A2FE09165000895E0936500E09165002B
:100368000895E160E093650086EF8A95F1F71BBB7D
:1003780086EF8A95F1F7E0916500EE7FE0936500DE
:100388000895A8E339DFA4E03ECFA4EFB1E00ED092
:10039800E1E0EA93A9E03BCF3A932A931A930A93B0
:1003A80008953B812A81198108810895109639F0B2
:1003B800A89586E69EE00197F1F71197C9F7089589
:00000001FF
