:040000000C94590003
:100004000C9400000C9400000C9400000C9400006C
:100014000C9400000C9400000C9400000C9400005C
:100024000C9400000C9400000C9400000C9400004C
:100034000C9400000C9400000C9400000C9400003C
:100044000C9400000C9400000C9400000C9400002C
:100054000C9400000C9400000C9400000C9400001C
:100064000C9400000C9400000C9400000C9400000C
:100074000C9400000C9400000C9400000C940000FC
:100084000C9400000C94000002002020202020206A
:10009400202020202020202020202020202000009C
:1000A400010005008C00150000058E000000F89486
:1000B400EE27ECBBF1E0F5BFE5BFE0936C008DE00B
:1000C400A2E0BB27ED938A95E9F780E090E1A0E0F8
:1000D400B1E0ED930197E9F7E4EAF0E085919591B9
:1000E400009761F0A591B59105901590BF01F001BD
:1000F40005900D920197E1F7FB01F0CF8BBFEFEF75
:10010400EDBFE0E1EEBFC0E0D5E00C943A01E2E3DC
:10011400E0937000E4E0E0937400E0E0E0937100A9
:10012400089502D13A2F00E010E0E0917400E078E5
:1001340051F4D8010F5F1F4FA13DE7E0BE0710F057
:10014400E1E042C0F2CFE0917100E87F3E1711F088
:10015400E2E03AC038C01A931A2F1093720064C0B8
:10016400E4ECE0937400A0E604C0E4ECE0937400D3
:10017400A0EAD7DF0895D8D09D0110E0E4ECE09325
:100184007400A0E8CEDF1E2F103009F01DC0E091EE
:10019400730017C0C9D09D0110E0E2DF1E2F10309C
:1001A40009F012C0ADB7BEB70F93E5DF0F911E2F54
:1001B400103009F009C0D9DF1E2F103009F004C037
:1001C400E02FD901EC93E0E0B4D024960895EFEF4A
:1001D400EABBEFE1E0936400089582D0E46085D047
:1001E400ED7F83D087D020C07BD0EB7F7ED0ED7FA6
:1001F4007CD080D019C01A931A2FBB2714C01A932D
:100204000A931A2F0A81A0E40A02F001E10FE068C0
:10021400AE2FEADF19810881239608951A931A2FC5
:10022400DCDFA1E0B0E08AD0199108951A930A9313
:100234008D01D801EC91E03029F0AC91EFDF0F5F34
:100244001F4FF7CF099119910895A1E0CDDFA2E0E6
:10025400D2DF0895BCDF5ED05DD05CD0AEE0C4DFF9
:10026400A4E0C9DFA6E0C0DFA4E0C5DFEEDF0895A7
:100274002F97FF2410E000E030E0ECDF48DFA52DED
:100284006ADFADB7BEB71F9385DF1F91E03031F54C
:10029400A4E6B0E053D0E32FF0E0DE01EA0FFB1F49
:1002A40010833F5FA12FBADF1D30C1F4E32FF0E0CC
:1002B400319734D0CADFE0E0EA93A0E0A0DFDE01AA
:1002C400B5DFE1E0EA93A0E09ADF30E020E02F30F0
:1002D40028F4E22FF0E022D02F5FF9CFD2CFFFCF66
:1002E4001A931A2FE09165000895E0936500E09158
:1002F40065000895E160E093650086EF8A95F1F763
:100304001BBB86EF8A95F1F7E0916500EE7FE093E1
:1003140065000895A8E368DFA4E06DCFDE01AE0FA9
:10032400BF1FE0E0EC9308953A932A931A930A933B
:1003340008953B812A81198108810895109639F026
:10034400A89586E69EE00197F1F71197C9F70895FD
:00000001FF
