:020000000C945E
:1000020071000C9400000C9400000C9400000C94FD
:1000120000000C9400000C9400000C9400000C945E
:1000220000000C9400000C9400000C9400000C944E
:1000320000000C9400000C9400000C9400000C943E
:1000420000000C9412010C9400000C9400000C941B
:1000520000000C9400000C9400000C9400000C941E
:1000620000000C9400000C9400000C9400000C940E
:1000720000000C9400000C9400000C9400000C94FE
:1000820000000C9400000C9400001027E8036400A8
:100092000A00010000100001100001000100000030
:1000A2004D61737465722053656E64203A0020209E
:1000B200202020202020202020202020202020203E
:1000C200202000404D696E6779750000010007002D
:1000D2009E0015000005B00008001505C5000000CF
:1000E200F894EE27ECBBF1E0F5BFE5BFE0936C00BE
:1000F2008DE0A2E0BB27ED938A95E9F780E090E1DD
:10010200A0E0B1E0ED930197E9F7EEECF0E0859124
:100112009591009761F0A591B59105901590BF0159
:10012200F00105900D920197E1F7FB01F0CF8BBF33
:10013200EFEFEDBFE0E1EEBFC0E0D5E00C9434019B
:10014200EFEFEABBEFE1E09364000895F6D0E460DC
:10015200F9D0ED7FF7D0FBD054C0EFD0EB7FF2D0D7
:10016200ED7FF0D0F4D04DC01A931A2FBB2726D1C1
:1001720048C01A930A931A2F0A81A0E40A02F001D6
:10018200E10FE068AE2FE9DF198108812396089517
:100192001A931A2FDBDFA1E0B0E010D132C01A931C
:1001A2000A938D01D801EC91E03029F0AC91F0DF97
:1001B2000F5F1F4FF7CF32C0A1E0CFDFA2E0D4DF45
:1001C2000895BEDFD4D0D3D0D2D0AEE0C6DFA4E053
:1001D200CBDFA6E0C2DFA4E0C7DFEEDF0895E7B31E
:1001E200E760E7BBBB98E7E5EDB9E0E0EEB9C09A9E
:1001F20008951A931A2FC0981FB9779BFECFC09A01
:10020200EFB1199108951A930A938D01E1E0E71570
:1002120029F42801D201EC91EFB9772409911991BF
:1002220008950A921A92FA926A937A938A939A9307
:10023200AA93BA93EA93FA93EFB7EA93E1E0EA93C7
:10024200A0E097DFACE2B1E0B9D0E991EFBFF9915C
:10025200E991B991A9919991899179916991F990CD
:10026200199009901895609780E160E070E0E0EAEB
:10027200F0E098D010E000E030E045E155E0E0E049
:10028200E1BBADDF9EDFE0E0EA93A0E072DFDE01DA
:10029200129685DF7894E0B31E2FF0E0E73FA0E0EE
:1002A200FA0751F468D0E1E07E2EC098DA01ABDFA4
:1002B200A4E56EDF64D039C0EB3FA0E0FA0789F411
:1002C2005AD0E0E0E883E983A881B981179744F422
:1002D200E881F981E40FF51F308155D058D0F4CF71
:1002E20024C0ED3FA0E0FA07C9F445D0C098A0E4CD
:1002F20080DF45D0E0E0E883E983A881B9815A979D
:1003020064F4E881EF5B3E2FE0E0EA93AEE031DF98
:10031200A32F3EDF38D03BD0F0CF07C0EE3FA0E0A6
:10032200FA0719F431E427D038D0313421F4ACE2A1
:10033200B1E044D032D0AFCFFFCF1A931A2FE09161
:1003420065000895E0936500E09165000895E1601D
:10035200E093650086EF8A95F1F71BBB86EF8A95DD
:10036200F1F7E0916500EE7FE09365000895A8E360
:10037200F4DEA4E0F9CE01E0AAE0B0E01FC0C09A2A
:10038200ACE2B1E01BC0C098A32F33DFF8CFE88105
:10039200F9813196E883F9830895C098A32F29DF64
:1003A200C09A0895AF93BF93DB01AC0FBD1F0590B8
:1003B2000D928A95E1F7BF91AF910895109639F0A9
:1003C200A89586E69EE00197F1F71197C9F708957F
:00000001FF
