:0A0000000C944B000C9400000C94CB
:10000A0000000C9400000C9400000C9400000C9466
:10001A0000000C9400000C9400000C9400000C9456
:10002A0000000C9400000C9400000C9400000C9446
:10003A0000000C9400000C9400000C9400000C9436
:10004A0000000C9400000C9400000C9400000C9426
:10005A0000000C9400000C9400000C9400000C9416
:10006A0000000C9400000C9400000C9400000C9406
:10007A0000000C9400000C9400000C9400000C94F6
:10008A0000000100010007008C000000F894EE2730
:10009A00ECBBF1E0F5BFE5BFE0936C008DE0A2E0B8
:1000AA00BB27ED938A95E9F780E090E1A0E0B1E003
:1000BA00ED930197E9F7EEE8F0E0859195910097C5
:1000CA0061F0A591B59105901590BF01F0010590D9
:1000DA000D920197E1F7FB01F0CF8BBFEFEFEDBF78
:1000EA00E0E1EEBFC0E0D5E00C94B700E7B3E7600B
:1000FA00E7BBBB98E7E5EDB9E0E0EEB9C09A089531
:10010A001A931A2FC0981FB9779BFECFC09AEFB1E6
:10011A0020C01A931A2FE0E0E0939B00E8E1E093F5
:10012A009A00E6E0E0939D00E12FF0E0309739F481
:10013A00E0E0E0939800EFE5E09399000AC0E1302F
:10014A00A0E0FA0731F4E0E0E0939800E7E0E093FA
:10015A00990019910895E0919B00E078E1F3E0910C
:10016A009C000895A0E0D5DFC1DFF5DF1E2FC79BF5
:10017A0002C0C79801C0C79AA12FC2DFF6CFFFCF2E
:00000001FF
