:080000000C9417010C940000A0
:100008000C9400000C9400000C9400000C94000068
:100018000C9400000C9400000C9400000C94000058
:100028000C9400000C9400000C94D4020C94000072
:100038000C9400000C9447040C9400000C940000ED
:100048000C9400000C9400000C9400000C94000028
:100058000C9400000C9400000C9400000C94000018
:100068000C9400000C9400000C9400000C94000008
:100078000C9400000C9400000C9400000C940000F8
:100088000C9400001027E80364000A000100001027
:10009800000110000100C0F9A4B0999282D88090A4
:1000A8008883C4A1848E1F002F004F008F0000009A
:1000B800585858010000000000000000000000002F
:1000C8000000000000000000000000000000000028
:1000D8000000000000000000000000000000000018
:1000E8000000000000000000000000000000000008
:1000F80000000000000000000000000000000000F8
:100108000000202020202020202020202020202027
:100118002020202020200043686F6F7365205365DE
:100128006174003120200032202000332020005349
:1001380074756479526F6F6D2020343A4F555400AE
:10014800313A256320323A256320333A2563002566
:10015800642564256425642564256425642564254F
:10016800642564256400496E7075742050686F6E4C
:10017800654E756D00536F6D656F6E6520557365BF
:100188006400313A5965732020323A4E6F00456D4C
:1001980070747920536561740055736572204368E3
:1001A80065636B00476F6F642042796500446F6F29
:1001B80072204F70656E0000150000050A011000DE
:1001C800AA059E000700BA05AE000C0015051F0120
:1001D800040021052B01040025052F010400290531
:1001E800330111002D0537010F003E056E010D008A
:1001F8004D057D010C005A058A010B006605960124
:100208000C0071058A010B007D05A1010900880514
:10021800AC010A009105B5010F009B056E010100B4
:10022800050008010000F894EE27ECBBF1E0F5BFEB
:10023800E5BFE0936C00F8E1F1BDE1BD8DE0A2E01F
:10024800BB27ED938A95E9F780E090E1A0E0B1E063
:10025800ED930197E9F7E0ECF1E08591959100972E
:1002680061F0A591B59105901590BF01F001059039
:100278000D920197E1F7FB01F0CF8BBFEFEFEDBFD8
:10028800E0E1EEBFC0E0D5E00C947204EFEFEABB0A
:10029800EFE1E09364000895E0916500E4600E9456
:1002A8002D09ED7F0E942D090E94320919C1E091A4
:1002B8006500EB7F0E942D09ED7F0E942D090E94A9
:1002C80032090EC1E881F0E00E94430909C1E981C1
:1002D800A0E4EA02F001A881EA0FE068EA93E7DF08
:1002E800C7C2E881EA93D8DF0E944709F9C0A8810C
:1002F800B981EC91E03041F0EA93F3DFE881F981CC
:100308003196E883F983F3CFB3C2E1E0EA93CFDF14
:10031800E2E0EA93D7DF0895B9DF0E944A090E9414
:100328004A090E944A09EEE00E945209E6E00E944A
:100338005209EBDF0895E2E3E0937000E4E0E09314
:100348007400E0E0E093710008951A930A9300E0C6
:1003580010E0E0917400E07861F4D8010F5F1F4F5E
:10036800A13DE7E0BE0720F0E1E01981088147C020
:10037800F0CFE0917100E87FAE2FEA81EA1721F013
:10038800E2E0198108813BC0E0E01981088137C0AB
:10039800E4EAE0937400E8E014C00E945909E8E137
:1003A800EA93D3DF9DC00E945909E8E2EA93CDDFC2
:1003B80097C0E4E9E09374000895E4EAE0937400D8
:1003C800E0E1EA93C2DF0895E881E160E093730019
:1003D800E4E8E0937400E0E4EA93B7DF81C01A939D
:1003E80010E0E4E8E0937400E8E5EA93AEDF1E2F3E
:1003F800E0917300A981BA81EC93E0E0188123961B
:1004080008951A9310E0C4DF1E2FEB81EA93C5DF2D
:100418001E2F103019F0E12F1881D5C0EA81EA9318
:10042800C2DF1E2F103019F0E12F1881CCC0E981EE
:10043800EA93B9DF1E2F103019F0E12F1881C3C0DD
:10044800B8DFE0E01881BFC01A930A9310E000E01B
:100458009FDF0E2FED81EA93A0DF0E2F003021F0F1
:10046800E02F19810881B0C1EC81EA939CDF0E2F3F
:10047800003021F0E02F19810881A6C19EDF0E2FE0
:10048800C39A003021F0E02F198108819DC1ED81C8
:10049800EA939ADF0E2FC49A003021F0E02F1981D9
:1004A800088192C1EDB7FEB7FA93EA931F9397DFDD
:1004B8001F910E2FC59A003021F0E02F1981088175
:1004C80083C177DFAA81BB811C93E0E01981088191
:1004D8007BC1E881EA93E0E0EA93E1E5EA9391DF02
:1004E800219608951A930A9300E0EC81EA93E2E0DA
:1004F800EA93EDB7FEB7FA93EA931F93A5DF1F912E
:100508000E2F003009F5F12FE0E0AA81BB81ED93B1
:10051800FC93EC81EA93E3E0EA93EDB7FEB7FA9334
:10052800EA931F9391DF1F910E2F003069F4AA817F
:10053800BB810D010E94370BDF01E12FF0E0EA2BB0
:10054800FB2BD001ED93FC93E02FF0E0198108819B
:1005580025960895E2B1E06FE2B9E0916100EF6F8E
:10056800E0936100E4B3EF60E4BBE0916400E06114
:10057800E0936400BD9AE5B3EF6FE5BB0895E2E848
:10058800EFBDEAE1EEBDE0E0F0E0FDBDECBDEFEF70
:10059800FFE8F7BDE6BD0E946009E7B7E06171C1F9
:1005A800000018951A930A9300E010E0EA81FB8195
:1005B8000E171F0730F485E08A95F1F70F5F1F4F7C
:1005C800F5CF19810881249608950E94510B30E0D7
:1005D800EC81FD81A0E1B7E20E94000B3E2F00E014
:1005E80010E0E32FD801F0E0AE17BF0768F4E09100
:1005F8006500E0610E946509E0916500EF7E0E9458
:1006080065090F5F1F4FEDCFDDC00E944F0B0EEF46
:1006180010E030E020E040E050E030E03430B8F561
:1006280005BB85E08A95F1F7E3B3E07F2E2F2030F4
:1006380051F1E22FF0E0E031A0E0FA0729F4E4E01C
:10064800E39FF00131961AC0E032A0E0FA0729F4DE
:10065800E4E0E39FF001329611C0E034A0E0FA072D
:1006680029F4E4E0E39FF001339608C0E038A0E005
:10067800FA0729F4E4E0E39FF0013496AF01E42F90
:100688000E94560BA1C0000F111F3F5FC7CF0E94E9
:10069800560B9AC01A9310E0E981E03011F410E08B
:1006A80049C00E946D09309721F40E947409E45FE3
:1006B80040C00E947409309749F40E947409EE0FF3
:1006C800EE0F6E2F0E946D09E60F33C00E94740969
:1006D800E130A0E0FA0751F40E9474090E947B09F6
:1006E800DB01AE0FBF1FE1E0F0E01FC00E947409FC
:1006F800E230A0E0FA0751F40E9474090E947B09D5
:10070800DB01AE0FBF1FE2E0F0E00FC00E947409EA
:10071800E330A0E0FA0771F40E9474090E947B0993
:10072800DB01AE0FBF1FE3E0F0E00E94440BEA1BC1
:10073800FB0B1E2F1B3019F410E0E1E05E2EE12FB9
:10074800188196C00E94510BAC81BD81E8EEF3E0A0
:100758000E94000B2E2FAC81BD81E8EEF3E00E94D1
:10076800180BDF01E4E6F0E00E94000B3E2FAC819D
:10077800BD81E4E6F0E00E94180BDF01EAE0F0E05A
:100788000E94000B0E2FAC81BD81EAE0F0E00E94D0
:10079800180B1E2FE091BA05E3B9E12F0E947F09DB
:1007A800E091BC05E3B9E02F0E947F09E091BE0506
:1007B800E3B9E32F0E947F09E091C005E3B9E22F76
:1007C8000E947F090E94580B26960895E881F981B6
:1007D800E130A0E0FA0729F4E4E7F7E00E9486098F
:1007E80047C0E230A0E0FA0729F4E4EAF6E00E9404
:1007F80086093EC0E330A0E0FA0729F4EBEEF5E005
:100808000E94860935C0E430A0E0FA0729F4E8E937
:10081800F5E00E9486092CC0E530A0E0FA0729F42B
:10082800EBEFF4E00E94860923C0E630A0E0FA0767
:1008380029F4E0E7F4E00E9486091AC0E730A0E056
:10084800FA0729F4E4EFF3E00E94860911C0E830C2
:10085800A0E0FA0729F4EAEBF3E00E94860908C051
:10086800E930A0E0FA0721F4E2E5F3E00E94860906
:1008780022960895EFE0E3BFE0E0E2BFE4E6E1BFDF
:10088800E2E0E7BF0895EA93EFB743947394EFBFAC
:10089800E99118950E94510BEC81EA93EDB7FEB7E8
:1008A8003197FA93EA933F932F931CDE2F913F9150
:1008B8001E2F103031F0E0E0F0E00E94580B0C944D
:1008C800AB07E4E6E71530F47724F9010E94580BEA
:1008D8000C94AB070E94580B0C94AB07EF97EF975B
:1008E800A29782E5AEE4B0E0E6EBF0E00E945D0B93
:1008F80000EE20E030E040E050E0E1B3E360E1BB2F
:100908000BDDB8DF27DE17DD3ADE0E948A0978940E
:100918000E9460090A93DDDD44247724E4E6E415A7
:10092800C0F4003E29F40CEE0E948D099F010FC00F
:100938000C3E29F402EE0E948D09AF0108C000EEBA
:100948000E948D09DE01A256BF4FED93FC937724D8
:1009580044245BDEEA939EDEF0E0DE01AE58BF4F32
:10096800ED93FC930E949309EBE0F0E00E94E70A04
:100978001E2E0E949309E0E0F0E00E94ED0AE121BA
:1009880029F00E949A090E94A30928C00E9493098D
:10099800E0E0F0E00E94E10AE52131F00E949A09C6
:1009A80055240E94A3091AC00E9493091D9781F437
:1009B8000E94A6090E94AD09E0E0DE01A65ABF4FD9
:1009C800ED93EC93DE01A45ABF4FED93EC9306C070
:1009D8000E9493091E9711F40E94B409DE01A059E0
:1009E800BF4F0D90BC91A02DE2E0F0E00E941B0BE0
:1009F8003097E1F5EBE0F0E0DE01A25BBF4FED934D
:100A0800FC930E94BA090E944B0B2CF50E94C10965
:100A1800DE01AA5ABF4FEE0FFF1FEA0FFB1FBF01EF
:100A28000E94C1093197DE01AA5ABF4FEE0FFF1F7E
:100A3800AE0FBF1F0E94370BDB01ED93FC9381E3E0
:100A48008A95F1F7DE01A25BBF4FED91FD913197D9
:100A5800FE93EE93D6CF0E94C809DE01AA5ABF4F73
:100A6800ED93FC930E949A090E94A309FE01E45A9F
:100A7800FF4F0190F081E02DA8EEB3E00E94FB0A41
:100A8800BF01FE01E65AFF4F0190F081E02DA4E678
:100A9800B0E00E94FB0A6E0F7F1F0E94CF09AAE0F8
:100AA800B0E00E94FB0AE60FF71F0E94D609EA0F82
:100AB800FB1FDE01A259BF4FED93FC93FA93EA9313
:100AC80041DE0E94C809FA93EA9380DEFE01ED5ADE
:100AD800FF4FE081F0E0309711F00C94BB050E94C5
:100AE800DD0914974CF40E94DD090E944B0B24F495
:100AF8000E94D6091A9709F007C00E94CF093197BA
:100B0800E9A3E3E00E94E4090E94DD09149721F4B7
:100B18000E94D6091A9709F029C00E94E909E5E15F
:100B2800F5E00E94F0090E94F409DE01A05BBF4FC6
:100B3800AC91AF3421F4E1E2F5E00E94F009DE0166
:100B4800AF5ABF4FAC91AF3421F4E5E2F5E00E9413
:100B5800F009DE01AE5ABF4FAC91AF3421F4E9E29F
:100B6800F5E00E94F009E6E00E94E409B8C1E1302E
:100B7800A0E0FA0781F5E0E0EA93EA93A8DBEDE26A
:100B8800F5E00E94F009FE01EA58FF4FFA93EA9354
:100B9800E8E4F1E0FA93EA93FE01EC5AFF4FE081B2
:100BA8000E94FA09FE01E75AFF4FE0810E94FA0904
:100BB800FE01E25AFF4FE0810E94FA098CE00E9490
:100BC800E20860960E94F409FE01EA58FF4F0E946D
:100BD800F009E0E080C1E230A0E0FA07D9F50E9410
:100BE800D6091A9791F50E94000A0E94050A0E94E8
:100BF8000A0A0E947E0AE8E5EC93E0E0DE01A25BC7
:100C0800BF4FED93EC930E94BA091B97DCF40E9446
:100C1800000ACF01DE01EA0FFB1F0E94BA09EA0FA2
:100C2800FB1FBF01FC010E94050A0E94BA09AE0F12
:100C3800BF1FEC91DB01EC93DE01A25BBF4F0E946A
:100C4800860AE1CFE5E00E94E409EAE0F0E00E94CC
:100C5800430945C1E330A0E0FA07D9F40E94A60988
:100C68000E94E909EEE3F5E00E94F009E2E00E9443
:100C7800E4090E947E0AAC91AF3451F40E94E9095C
:100C8800EDE4F5E00E94F0090E948A090E94B40987
:100C980026C1E430A0E0FA0709F50E94DD091197A2
:100CA80021F40E94D6091A9709F00BC00E947E0A07
:100CB800EFE4EC930E94B4090E94A609E4E0E9A3DA
:100CC8000CC00E94DD09129721F40E94D6091A97D8
:100CD80009F003C0E3E00E94E40901C1E530A0E0A7
:100CE800FA07A1F40E94A6090E94E9090E94000AD5
:100CF8000E94050A0E94F0090E94F409EAE5F5E05D
:100D08000E94F0090E94AD09E4E0E5C0E630A0E0E9
:100D1800FA0739F50E94CF093197E9A30E94DD0946
:100D280014974CF40E94DD090E944B0B24F40E9496
:100D3800D6091A9709F014C0EAE00E94E4090E9453
:100D48007E0AAC91A83561F40E94E909E6E6F5E06F
:100D58000E94F0090E948A090E94A6090E94B4090B
:100D6800BEC0E830A0E0FA0791F40E94A6090E94EC
:100D7800AD090E94E909FE01B2960E94F0090E949D
:100D8800F409E1E7F5E00E94F009E7E0A4C0E730E4
:100D9800A0E0FA0711F00C944E070E94DD091197A4
:100DA80021F40E94D6091A9709F067C02297E0E05B
:100DB800E883E9830E94E909E0E0DE01A05BBF4F18
:100DC800ED93EC930E948C0A1B972CF5EBA1ABE0FA
:100DD800EA9FF001DE011296EA0FFB1F0E948C0ABF
:100DE800AE0FBF1F1C90FE01E05BFF4F0190F0812A
:100DF800E02DDE019496AE0FBF1FEC91E11529F4AA
:100E0800E881F9813196E883F983DE01A05BBF4F61
:100E18000E94860AD7CFA881B9811B9761F50E94E5
:100E2800E909EDE7F5E00E94F0090E94F409E8E815
:100E3800F5E00E94F009E8EBFBE0FBBDEABD0E948B
:100E4800E909E1E9F5E00E94F009E8E8F3E10E9428
:100E580043090E946009EBA1F0E0DE01AE5ABF4FE2
:100E6800AE0FBF1FE8E5EC93E1E0DE01AB5ABF4FE0
:100E7800EC930E94AD0922960CC00E94DD091297DE
:100E880021F40E94D6091A9709F003C0EAE00E94EB
:100E9800E40925C0E930A0E0FA0781F40E94D609E8
:100EA8001A9739F4FE01B2960E940A0AE8E00E94F5
:100EB800E409EAE0F0E00E94430911C0EA30A0E04A
:100EC800FA0769F40E94A6090E94E909EBE9F5E02E
:100ED8000E94F009E9E0DE01AD5ABF4FEC931ECD48
:100EE800FFCF1A930A93AA81BB8112960E94370BEF
:100EF800309729F1AA81BB8114960E94370B8F0184
:100F0800309761F00230E0E01E07C0F0F801319739
:100F18008F01AA81BB811496ED93FC93AA81BB81B2
:100F280012960E94860A3197AC81A083AA81BB8160
:100F38000E94370BFF2312F00E94860A06C0AA817E
:100F4800BB81EFEFFFEFED93FC93198108812596A4
:100F5800089526970E944F0B10E0AC85BD85E0E010
:100F6800F0E0ED93FC93EA89FB893196EA8BFB8BE1
:100F78003197E4912E2FE03011F40C94DA08E12F28
:100F8800E03039F4253211F411E002C00E94930ACE
:100F98000CC1E130A9F4253219F40E94930A04C166
:100FA80012E040E000E02D3211F401E0FEC02B32E7
:100FB80011F44BE2FAC0203211F440E2F6C002C04C
:100FC800E23039F450E013E0203311F40068EDC04A
:100FD80004C0E33011F00C94D908203310F02A3300
:100FE80008F007C0AAE05A9F502DE22FE0535E0F89
:100FF800DCC0E22FE33649F40E949C0AE889F989AB
:10100800A481AA930E94A20ACFC0E33741F40E94A8
:101018009C0A0E94AA0A0E9418091E2F0AC0E037DB
:1010280061F40E949C0A0E94AA0A0E9422091E2FAB
:10103800086002600F7730E035C0E43611F0E93619
:1010480011F4046002C0E53731F4ECE8F0E0EE8317
:10105800FF8315E00DC0E83511F4086004C0E837D7
:1010680011F00C94D808E6E9F0E0EE83FF8314E071
:1010780002FF14C00E949C0A0E94B40AAB85AA23EE
:101088003AF4EA85FB850E94D30AEA87FB874DE29A
:10109800403011F01F5F01C00B7F04C00E949C0A02
:1010A8000E94B40A00FD11C0151778F407FF08C0A4
:1010B80002FF04C00B7F242F115001C020E301C0A0
:1010C80020E20E94930A5150EFCF312F01FF17C041
:1010D8003030A1F003FF06C0EE81FF812591EE8339
:1010E800FF8305C0AE81BF812D91AE83BF830E946F
:1010F800930A503009F051503150EACF4BC020E3E9
:10110800EE81FF810E943B0BE887F987EE81FF8122
:101118003296EE83FF83E885F985AA85BB85AE17ED
:10112800BF0750F02F5FA885B985EA85FB85EA1BC4
:10113800FB0BEA87FB87EFCF2A3328F003FF02C0B7
:10114800295F01C0295D04FD1AC0213320F4A88558
:10115800B985119709F409C0531710F000FF01C0B1
:1011680013C020E207FF0BC020E3006102FF07C0A5
:101178000B7F4A930E94A20A503009F051500E94F6
:10118800930A503009F051503150A885B98512970B
:1011980008F0B5CF00FF08C0503031F05150E0E200
:1011A800EA930E94A20AF8CF10E0DDCEAC85BD8597
:1011B8000E94370B0E94560B64960895FF92F82EF2
:1011C80026970E94510B0E94BC0A309719F4EFEF42
:1011D800FFEF25C0DE0116960E94CF0A8D010E94FE
:1011E800BC0AEE83FF83E0E0E887E987DE011A9610
:1011F8000E94CF0A0E94370BFA93EA931A930A9334
:10120800E5E7F7E0FA93EA93FE013A96FA93EA9350
:10121800A0DE9F01AE81BF81E0E0EC93F9010E945E
:10122800580B2A96FF900895A991B991EE27FF27A8
:101238006D91662311F03196FBCF0895AA27BB273D
:10124800E991F9910590002011F01196FBCFFD016D
:101258000895E0936500E09165000895E160E093EA
:10126800650086EF8A95F1F7E881EBBB86EF8A95F2
:10127800F1F7E0916500EE7FE09365000895FA9339
:10128800EA930C94C30AE1E0F0E0F9CFE8E3EA93CB
:101298000E945B01E4E0EA930C946601EA930E94E1
:1012A8005B01E4E0EA930C946601E881E093730043
:1012B800E4E8E09374000895E6E6F2E1FBBDEABDD8
:1012C8000895E0936500EC81FD81FA93EA930C940C
:1012D800D602A981BB27E4E0F0E00E941B0B089529
:1012E800A981B0E0E4E0F0E00E94130B08950E94A9
:1012F800D70ABF01EECFF0E0E655FA4FE081E09360
:101308006200C1CFFA93EA930C94E902E8EEF3E0A5
:10131800B6CF0A930E946D020A930C944E04DE0124
:10132800AE58BF4F0D90BC91A02D0895DE01A05975
:10133800BF4FED91FD913196FE93EE930895E2E350
:10134800F0E09DCFE0E0DE01AA5ABF4FED93EC93A9
:101358000895E0E0DE01A85ABF4FED93EC9308959D
:10136800E1E0DE01AD5ABF4FEC930895DE01A25BC8
:10137800BF4F0D90BC91A02D0895FE01E25BFF4F79
:101388000190F081E02D0895FE01EE58FF4F019085
:10139800F081E02D0895FE01E85AFF4F0190F08199
:1013A800E02D0895DE01AA5ABF4F0D90BC91A02DE3
:1013B8000895DE01A85ABF4F0D90BC91A02D089545
:1013C800DE01AD5ABF4FEC9308950E948901E0E019
:1013D800EA93EA930C946B01FA93EA930C947B01D9
:1013E800E1E0EA93E0E0EA930C946B01FF276627BB
:1013F80077270E943F0B0895E9A1ABE0EA9FF0012F
:101408000895DE019D96EA0FFB1F0895FA93EA936B
:10141800E7E5F1E0FA93EA93FE01E059FF4F019006
:10142800F081E02D0E94DC0A0E943F0BADDF0E9494
:10143800DC0A0E943F0BFE01EC58FF4F0190F0813F
:10144800E02D0E94DC0A0E943F0BFE01EA58FF4F84
:101458000190F081E02D0E94DC0A0E943F0BFE0102
:10146800E858FF4F0190F081E02D0E94DC0A0E94AD
:101478003F0BFE01E658FF4F0190F081E02D0E94DE
:10148800DC0A0E943F0BFE01E458FF4F0190F081F7
:10149800E02D0E94DC0A0E943F0BFE01E258FF4F3C
:1014A8000190F081E02D0E94DC0A0E943F0BFE01B2
:1014B800E058FF4F0190F081E02D0E94DC0A0E9465
:1014C8003F0BFE01EE57FF4F0190F081E02D0E9487
:1014D800DC0A0E943F0BFE01EC57FF4F0190F081A0
:1014E800E02D0E94DC0A0E943F0B8CE20E94E20879
:1014F800E0960895E9A1F0E0DE01A05BBF4FAE0FD2
:10150800BF1F0895ED91FD913196FE93EE930895D6
:10151800DE01A05BBF4F0D90BC91A02D08952A93CA
:10152800ED85FE85FA93EA93E989FA890995089584
:10153800E889F9893497E88BF98B0895ED85FE855C
:10154800FA93EA93E989FA8909950895A889B989E6
:1015580014960E94370BEE83FF83FA93EA9308955B
:10156800A889B98914960E94370BEA87FB870895E2
:10157800DE011C960E94CF0A0E94370B0895E9915C
:10158800F991309639F086E69EE00197F1F7A89533
:101598003197C9F708950024AF0DB01D0895F1954E
:1015A800E195F0400895EE0FFF1FEE0FFF1F08951D
:1015B8006F2F660F660B762F0895EA17FB07E1E099
:1015C80009F0EE270895AE17BF07E1E00CF0EE270B
:1015D8000895EA17FB07E1E00CF0EE270895FA9F5B
:1015E800F02DEB9FF00DEA9FE02DF10D08952DD021
:1015F800F6DF0EF4D4DF08950024112490E1AA0F39
:10160800BB1F001C111C0E1A1F0A18F40E0E1F1EF9
:1016180001C0A1609A9599F7FD01D001089515D0F0
:10162800EBDF0EF4BCDF0895E7DFFD010895E894D1
:10163800B7FF04C0A095B09511966894F7FDAFDF89
:10164800DBDFFD010EF4ABDF0895E894F7FF02C07D
:10165800A6DF6894B7FF06C0A095B095119600F86C
:10166800039400FA0895ED91FC911197089505905F
:10167800F491E02D08957A936A93FA93EA93089582
:101688001B2EBF2FF12D1A2EAE2FE12D0895002409
:101698000A160B0608955A934A933A932A931A9373
:1016A8000A9308955D814C813B812A8119810881C3
:1016B8000895AC0FBD1F05900D928A95E1F7089526
:00000001FF
