:080000000C9446010C94000071
:100008000C9400000C9400000C9400000C94000068
:100018000C9400000C9400000C9400000C94000058
:100028000C9400000C9400000C9405030C94000040
:100038000C9400000C9478040C9400000C940000BC
:100048000C9400000C9400000C9400000C94000028
:100058000C9400000C9400000C9400000C94000018
:100068000C9400000C9400000C9400000C94000008
:100078000C9400000C9400000C9400000C940000F8
:100088000C9400001027E80364000A000100001027
:10009800000110000100C0F9A4B0999282D88090A4
:1000A8008883C4A1848E1F002F004F008F0000009A
:1000B8000000000000000000000000000000000038
:1000C8000000000000000000000000000000000028
:1000D8000000000000000000000000000000000018
:1000E8000000000000000000000000000000000008
:1000F80000000000000000000000000000000000F8
:1001080000585858010000000000000000000000DE
:1001180000000000000000000000000000000000D7
:1001280000000000000000000000000000000000C7
:1001380000000000000000000000000000000000B7
:1001480000000000000000000000000000000000A7
:100158000000000020202020202020202020202017
:1001680020202020202020200025303364636D00CB
:1001780043686F6F736520536561740031202000F8
:1001880032202000332020005374756479526F6F39
:100198006D2020343A4F555400313A256320323AC5
:1001A800256320333A256300256425642564256486
:1001B800256425642564256425642564256400492F
:1001C8006E7075742050686F6E654E756D00536F54
:1001D8006D656F6E65205573656400313A596573B6
:1001E8002020323A4E6F00456D7074792053656156
:1001F80074005573657220436865636B00476F6FC1
:1002080064204279650057726F6E6720506173737E
:10021800776F72640000150000055C011000AF05DF
:100228009E000700BF05AE000C001505780104000C
:1002380021058401040025058801040029058C0195
:1002480011002D0590010F003E05C7010D004D0559
:10025800D6010C005A05E3010B006605EF010C00FE
:100268007105E3010B007D05FA0109008805050207
:100278000F0091050E020F00A005C701010005003F
:100288005A010000F894EE27ECBBF1E0F5BFE5BF9A
:10029800E0936C00F8E1F1BDE1BD8DE0A2E0BB2781
:1002A800ED938A95E9F780E090E1A0E0B1E0ED9365
:1002B8000197E9F7EEE1F2E085919591009761F0F9
:1002C800A591B59105901590BF01F00105900D928B
:1002D8000197E1F7FB01F0CF8BBFEFEFEDBFE0E156
:1002E800EEBFC0E0D5E00C94A304EFEFEABBEFE16A
:1002F800E09364000895E0916500E4600E94A40919
:10030800ED7F0E94A4090E94A90919C1E091650026
:10031800EB7F0E94A409ED7F0E94A4090E94A9090D
:100328000EC1E881F0E00E94BA0909C1E981A0E4A0
:10033800EA02F001A881EA0FE068EA93E7DFC9C2A0
:10034800E881EA93D8DF0E94BE09F9C0A881B98183
:10035800EC91E03041F0EA93F3DFE881F9813196DE
:10036800E883F983F3CFB5C2E1E0EA93CFDFE2E0B7
:10037800EA93D7DF0895B9DF0E94C1090E94C10935
:100388000E94C109EEE00E94C909E6E00E94C9097D
:10039800EBDF0895E2E3E0937000E4E0E09374009B
:1003A800E0E0E093710008951A930A9300E010E0EA
:1003B800E0917400E07861F4D8010F5F1F4FA13D10
:1003C800E7E0BE0720F0E1E01981088147C0F0CFDF
:1003D800E0917100E87FAE2FEA81EA1721F0E2E0B0
:1003E800198108813BC0E0E01981088137C0E4EA3F
:1003F800E0937400E8E014C00E94D009E8E1EA93B1
:10040800D3DF9DC00E94D009E8E2EA93CDDF97C010
:10041800E4E9E09374000895E4EAE0937400E0E10D
:10042800EA93C2DF0895E881E160E0937300E4E8AD
:10043800E0937400E0E4EA93B7DF81C01A9310E018
:10044800E4E8E0937400E8E5EA93AEDF1E2FE0915C
:100458007300A981BA81EC93E0E01881239608958E
:100468001A9310E0C4DF1E2FEB81EA93C5DF1E2F1D
:10047800103019F0E12F1881D7C0EA81EA93C2DF62
:100488001E2F103019F0E12F1881CEC0E981EA93B0
:10049800B9DF1E2F103019F0E12F1881C5C0B8DF61
:1004A800E0E01881C1C01A930A9310E000E09FDFD2
:1004B8000E2FED81EA93A0DF0E2F003021F0E02F00
:1004C80019810881B2C1EC81EA939CDF0E2F0030BC
:1004D80021F0E02F19810881A8C19EDF0E2FC39A51
:1004E800003021F0E02F198108819FC1ED81EA9346
:1004F8009ADF0E2FC49A003021F0E02F198108816D
:1005080094C1EDB7FEB7FA93EA931F9397DF1F9153
:100518000E2FC59A003021F0E02F1981088185C17E
:1005280077DFAA81BB811C93E0E0198108817DC136
:10053800E881EA93E0E0EA93E1E5EA9391DF219626
:1005480008951A930A9300E0EC81EA93E2E0EA93B3
:10055800EDB7FEB7FA93EA931F93A5DF1F910E2F0D
:10056800003009F5F12FE0E0AA81BB81ED93FC93FF
:10057800EC81EA93E3E0EA93EDB7FEB7FA93EA93E6
:100588001F9391DF1F910E2F003069F4AA81BB8160
:100598000D010E94C70BDF01E12FF0E0EA2BFB2BD6
:1005A800D001ED93FC93E02FF0E0198108812596A6
:1005B8000895E2B1E06FE2B9E0916100EF6FE09376
:1005C8006100E4B3EF60E4BBE0916400E061E093B4
:1005D8006400BD9AE5B3EF6FE5BB0895E2E8EFBDAF
:1005E800EAE1EEBDE0E0F0E0FDBDECBDEFEFFFE8D5
:1005F800F7BDE6BDE6E6F2E1FBBDEABDE7B7E061BF
:1006080071C1000018951A930A9300E010E0EA817E
:10061800FB810E171F0730F485E08A95F1F70F5F0D
:100628001F4FF5CF19810881249608950E94E10B88
:1006380030E0EC81FD81A0E1B7E20E94900B3E2FF3
:1006480000E010E0E32FD801F0E0AE17BF0768F430
:10065800E0916500E0610E94D709E0916500EF7EB6
:100668000E94D7090F5F1F4FEDCFDDC00E94DF0B3F
:100678000EEF10E030E020E040E050E030E03430B1
:10068800B8F505BB85E08A95F1F7E3B3E07F2E2F37
:10069800203051F1E22FF0E0E031A0E0FA0729F430
:1006A800E4E0E39FF00131961AC0E032A0E0FA07D7
:1006B80029F4E4E0E39FF001329611C0E034A0E0B1
:1006C800FA0729F4E4E0E39FF001339608C0E03824
:1006D800A0E0FA0729F4E4E0E39FF0013496AF01C3
:1006E800E42F0E94E60BA1C0000F111F3F5FC7CF88
:1006F8000E94E60B9AC01A9310E0E981E03011F4E9
:1007080010E049C00E94DF09309721F40E94E609F1
:10071800E45F40C00E94E609309749F40E94E60968
:10072800EE0FEE0F6E2F0E94DF09E60F33C00E9416
:10073800E609E130A0E0FA0751F40E94E6090E94B8
:10074800ED09DB01AE0FBF1FE1E0F0E01FC00E9422
:10075800E609E230A0E0FA0751F40E94E6090E9497
:10076800ED09DB01AE0FBF1FE2E0F0E00FC00E9411
:10077800E609E330A0E0FA0771F40E94E6090E9456
:10078800ED09DB01AE0FBF1FE3E0F0E00E94D40BE0
:10079800EA1BFB0B1E2F1B3019F410E0E1E05E2E64
:1007A800E12F188196C00E94E10BAC81BD81E8EE73
:1007B800F3E00E94900B2E2FAC81BD81E8EEF3E0B0
:1007C8000E94A80BDF01E4E6F0E00E94900B3E2FA8
:1007D800AC81BD81E4E6F0E00E94A80BDF01EAE00D
:1007E800F0E00E94900B0E2FAC81BD81EAE0F0E0B2
:1007F8000E94A80B1E2FE091BF05E3B9E12F0E94CC
:10080800F109E091C105E3B9E02F0E94F109E091F7
:10081800C305E3B9E32F0E94F109E091C505E3B9E7
:10082800E22F0E94F1090E94E80B26960895E881BC
:10083800F981E130A0E0FA0729F4E4E7F7E00E9443
:10084800F80947C0E230A0E0FA0729F4E4EAF6E044
:100858000E94F8093EC0E330A0E0FA0729F4EBEE65
:10086800F5E00E94F80935C0E430A0E0FA0729F461
:10087800E8E9F5E00E94F8092CC0E530A0E0FA07A5
:1008880029F4EBEFF4E00E94F80923C0E630A0E079
:10089800FA0729F4E0E7F4E00E94F8091AC0E73003
:1008A800A0E0FA0729F4E4EFF3E00E94F80911C088
:1008B800E830A0E0FA0729F4EAEBF3E00E94F8092F
:1008C80008C0E930A0E0FA0721F4E2E5F3E00E946D
:1008D800F80922960895EFE0E3BFE0E0E2BFE4E61E
:1008E800E1BFE2E0E7BF0895EA93EFB7439473945A
:1008F800EFBFE99118950E94E10BEC81EA93EDB7FF
:10090800FEB73197FA93EA933F932F931ADE2F910C
:100918003F911E2F103031F0E0E0F0E00E94E80B2C
:100928000C942208E4E6E71530F47724F9010E94D4
:10093800E80B0C9422080E94E80B0C942208EF970D
:10094800EF97A59783EAA0E0B0E0E6EBF0E00E941D
:10095800ED0B00EE20E030E040E050E0E1B3E36072
:10096800E1BB09DDB8DF25DE15DD38DE0E94FC09B4
:100978007894E6E6F2E1FBBDEABD0A93D9DD4424AA
:100988007724E4E6E41510F00C943E05003E59F493
:100998000CEE0A93CDDD0A93AEDFDE01A356BF4FFE
:1009A800ED93FC9319C00C3E59F402EE0E94FF0926
:1009B8003296FF93EF930A939EDFAF91BF910AC0DF
:1009C80000EE0E94FF093496FF93EF930A9393DF9A
:1009D800AF91BF91ED93FC930E94060A0E940D0A05
:1009E800139714F00C943C050E94140ADE01A356D8
:1009F800BF4F0E941B0A7F9728F00E94220AAC91E1
:100A0800AF3409F022C00E94290AEC91EF5FEC9301
:100A18000E942E0AE1E7F1E0FA93EA93FE01EB5A0D
:100A2800FF4F0190F081E02DDE011496AE0FBF1F3D
:100A3800EC910E94340A84E00E94590928960E9489
:100A48003A0A0E942E0A82DC04C00E94290AE0E0C9
:100A5800EC930E94290AAC91A03120F00E94220A4E
:100A6800E5E4EC930E94410A3196FE93EE93B6CFEB
:100A780077244424FBDDEA933EDE4E2F5527DA0126
:100A8800EBE0F0E00E94770B0E2EE0E0F0E00E9431
:100A98007D0BE02129F00E94470A0E94500A29C0D4
:100AA800DA01E0E0F0E00E94710BE52131F00E94EC
:100AB800470A55240E94500A1CC0EDE0F0E0E417F4
:100AC800F50781F40E94530A0E945A0AE0E0DE0109
:100AD800A35ABF4FED93EC93DE01A15ABF4FED939C
:100AE800EC9307C0EEE0F0E0E417F50711F40E947C
:100AF800610ADE01AD58BF4F0D90BC91A02DE2E018
:100B0800F0E00E94AB0B309799F5EBE0F0E0DE01E6
:100B1800AF5ABF4FED93FC930E940D0A0E94DB0B66
:100B2800F4F40E94140ADE01A75ABF4FEE0FFF1F0C
:100B3800EA0FFB1FBF010E94140A3197DE01A75A72
:100B4800BF4F0E941B0ADB01ED93FC9381E38A955A
:100B5800F1F70E94410A3197FE93EE93DDCFFE0133
:100B6800E75AFF4F419350830E94470A0E94500A58
:100B7800FE01E15AFF4F0190F081E02DA8EEB3E0AD
:100B88000E948B0BBF01FE01E35AFF4F0190F081D9
:100B9800E02DA4E6B0E00E948B0B6E0F7F1F0E9431
:100BA800670AAAE0B0E00E948B0BE60FF71F0E94CD
:100BB8006E0AEA0FFB1FDE01AF58BF4FED93FC939F
:100BC800FA93EA93F0DD5A934A9331DEFE01EA5A2A
:100BD800FF4FE081F0E0309711F00C943B060E9443
:100BE800750A14974CF40E94750A0E94DB0B24F4D2
:100BF8000E946E0A1A9709F007C00E94670A319787
:100C0800ECA3E3E00E947C0A0E94750A149721F481
:100C18000E946E0A1A9709F029C00E943A0AE5E173
:100C2800F5E00E94810A0E94850ADE01AD5ABF4F95
:100C3800AC91AF3421F4E1E2F5E00E94810ADE01D3
:100C4800AC5ABF4FAC91AF3421F4E5E2F5E00E9415
:100C5800810ADE01AB5ABF4FAC91AF3421F4E9E20F
:100C6800F5E00E94810AE6E00E947C0AAFC1E1300B
:100C7800A0E0FA0759F5E0E0EA93EA9357DBEDE2E2
:100C8800F5E00E94810A0E942E0AE1EAF1E0FA9357
:100C9800EA93FE01E95AFF4FE0810E94340AFE01FF
:100CA800E45AFF4FE0810E94340AFE01EF59FF4FDA
:100CB800E0810E94340A8CE00E94590960960E94E3
:100CC800850A0E942E0A42DBE0E07CC1E230A0E007
:100CD800FA07C1F50E946E0A1A9779F50E948B0AE5
:100CE8000E94900A0E94950A0E940E0BE8E5EC9378
:100CF8000E94060A0E940D0A1B97E4F40E948B0AC0
:100D0800CF01DE011396EA0FFB1F0E940D0AEA0FBE
:100D1800FB1FBF01FC010E94900A0E940D0AAE0F42
:100D2800BF1FEC91DB01EC930E94410A3196FE93C0
:100D3800EE93E0CFE5E00E947C0AEAE0F0E00E9452
:100D4800BA0944C1E330A0E0FA07D9F40E94530A73
:100D58000E943A0AEEE3F5E00E94810AE2E00E946E
:100D68007C0A0E940E0BAC91AF3451F40E943A0AEF
:100D7800EDE4F5E00E94810A0E94FC090E94610AE4
:100D880025C1E430A0E0FA0709F50E94750A119719
:100D980021F40E946E0A1A9709F00BC00E940E0BEC
:100DA800EFE4EC930E94610A0E94530AE4E0ECA38A
:100DB8000CC00E94750A129721F40E946E0A1A97B5
:100DC80009F003C0E3E00E947C0A00C1E530A0E01E
:100DD800FA07A1F40E94530A0E943A0A0E948B0A59
:100DE8000E94900A0E94810A0E94850AEAE5F5E0BD
:100DF8000E94810A0E945A0AE4E0E4C0E630A0E0BA
:100E0800FA0739F50E94670A3197ECA30E94750A20
:100E180014974CF40E94750A0E94DB0B24F40E947C
:100E28006E0A1A9709F014C0EAE00E947C0A0E9430
:100E38000E0BAC91AF3461F00E943A0AE6E6F5E099
:100E48000E94810A0E94FC090E94530A0E94610ABA
:100E5800BDC0E830A0E0FA0791F40E94530A0E944E
:100E68005A0A0E943A0AFE01B5960E94810A0E9417
:100E7800850AE1E7F5E00E94810AE7E0A3C0E730D0
:100E8800A0E0FA0711F00C94C5070E94750A1197A3
:100E980021F40E946E0A1A9709F066C02297E0E0D2
:100EA800E883E983DE01AD5ABF4FED93EC930E94CE
:100EB800160B1B972CF5EEA1ABE0EA9FF001DE01C3
:100EC8001596EA0FFB1F0E94160BAE0FBF1F1C9052
:100ED800FE01ED5AFF4F0190F081E02DDE0197965B
:100EE800AE0FBF1FEC91E11529F4E881F981319625
:100EF800E883F983DE01AD5ABF4F0E941D0BD7CF9F
:100F0800A881B9811B97E9F40E943A0AEDE7F5E058
:100F18000E94810A0E94850AE8E8F5E00E94810A99
:100F2800EEA1F0E0DE01AB5ABF4FAE0FBF1FE8E500
:100F3800EC93E1E0DE01A85ABF4FEC930E945A0AF5
:100F480011C00E943A0AE1E9F5E00E94810AE0ED49
:100F5800F7E00E94BA090E945A0AE1E0DE01A85AA5
:100F6800BF4FEC9322960CC00E94750A129721F489
:100F78000E946E0A1A9709F003C0EAE00E947C0AF0
:100F880025C0E930A0E0FA0781F40E946E0A1A979A
:100F980039F4FE01B5960E94950AE8E00E947C0AA1
:100FA800EAE0F0E00E94BA0911C0EA30A0E0FA07CE
:100FB80069F40E94530A0E943A0AE0EAF5E00E94A6
:100FC800810AE9E0DE01AA5ABF4FEC93DACCFFCFE1
:100FD8001A930A93AA81BB8112960E94C70B309775
:100FE80029F1AA81BB8114960E94C70B8F01309703
:100FF80061F00230E0E01E07C0F0F80131978F0180
:10100800AA81BB811496ED93FC93AA81BB811296A9
:101018000E941D0B3197AC81A083AA81BB810E94DD
:10102800C70BFF2312F00E941D0B06C0AA81BB81CB
:10103800EFEFFFEFED93FC93198108812596089552
:1010480026970E94DF0B10E0AC85BD85E0E0F0E05C
:10105800ED93FC93EA89FB893196EA8BFB8B3197F8
:10106800E4912E2FE03011F40C945109E12FE03077
:1010780039F4253211F411E002C00E94230B0CC18F
:10108800E130A9F4253219F40E94230B04C112E0BF
:1010980040E000E02D3211F401E0FEC02B3211F4E3
:1010A8004BE2FAC0203211F440E2F6C002C0E2304E
:1010B80039F450E013E0203311F40068EDC004C0A7
:1010C800E33011F00C945009203310F02A3308F063
:1010D80007C0AAE05A9F502DE22FE0535E0FDCC0F4
:1010E800E22FE33649F40E942C0BE889F989A481A0
:1010F800AA930E94320BCFC0E33741F40E942C0B15
:101108000E943A0B0E948F091E2F0AC0E03761F433
:101118000E942C0B0E943A0B0E9499091E2F08600E
:1011280002600F7730E035C0E43611F0E93611F48B
:10113800046002C0E53731F4ECE8F0E0EE83FF83A9
:1011480015E00DC0E83511F4086004C0E83711F067
:101158000C944F09E6E9F0E0EE83FF8314E002FF08
:1011680014C00E942C0B0E94440BAB85AA233AF4AE
:10117800EA85FB850E94630BEA87FB874DE24030D6
:1011880011F01F5F01C00B7F04C00E942C0B0E944E
:10119800440B00FD11C0151778F407FF08C002FFC3
:1011A80004C00B7F242F115001C020E301C020E2AE
:1011B8000E94230B5150EFCF312F01FF17C0303061
:1011C800A1F003FF06C0EE81FF812591EE83FF8326
:1011D80005C0AE81BF812D91AE83BF830E94230BD2
:1011E800503009F051503150EACF4BC020E3EE8126
:1011F800FF810E94CB0BE887F987EE81FF81329649
:10120800EE83FF83E885F985AA85BB85AE17BF07FE
:1012180050F02F5FA885B985EA85FB85EA1BFB0B93
:10122800EA87FB87EFCF2A3328F003FF02C0295F44
:1012380001C0295D04FD1AC0213320F4A885B985B1
:10124800119709F409C0531710F000FF01C013C02B
:1012580020E207FF0BC020E3006102FF07C00B7FFD
:101268004A930E94320B503009F051500E94230BD0
:10127800503009F051503150A885B985129708F0BF
:10128800B5CF00FF08C0503031F05150E0E2EA938A
:101298000E94320BF8CF10E0DDCEAC85BD850E94F0
:1012A800C70B0E94E60B64960895FF92F82E2697C6
:1012B8000E94E10B0E944C0B309719F4EFEFFFEFFF
:1012C80025C0DE0116960E945F0B8D010E944C0B13
:1012D800EE83FF83E0E0E887E987DE011A960E9443
:1012E8005F0B0E94C70BFA93EA931A930A93ECEEEA
:1012F800F7E0FA93EA93FE013A96FA93EA93A0DEAE
:101308009F01AE81BF81E0E0EC93F9010E94E80BF8
:101318002A96FF900895A991B991EE27FF276D911C
:10132800662311F03196FBCF0895AA27BB27E991D0
:10133800F9910590002011F01196FBCFFD01089559
:10134800E0936500E09165000895E160E093650031
:1013580086EF8A95F1F7E881EBBB86EF8A95F1F77E
:10136800E0916500EE7FE09365000895FA93EA93B3
:101378000C94530BE1E0F0E0F9CFE8E3EA930E9424
:101388008A01E4E0EA930C949501EA930E948A01A9
:10139800E4E0EA930C949501E881E0937300E4E8B3
:1013A800E09374000895E0936500EC81FD81FA9361
:1013B800EA930C940703A981BB27E4E0F0E00E94BC
:1013C800AB0B0895A981B0E0E4E0F0E00E94A30B24
:1013D80008950E94670BBF01EECFF0E0E155FA4F88
:1013E800E081E0936200C6CFFA93EA930C941A0363
:1013F800E8EEF3E0BBCF0A930E949C02FE01E3569D
:10140800FF4F0895E0E0DE01AF5ABF4FED93EC9334
:101418000895DE01AF5ABF4F0D90BC91A02D0895DD
:10142800FE01EF5AFF4F0190F081E02D0895EE0F75
:10143800FF1FAE0FBF1F0E94C70B0895F1DFDE012B
:10144800AD5ABF4FAE0FBF1F0895EADFDE01AE0FE2
:10145800BF1F0895FE01EB58FF4FFA93EA930895D2
:10146800FF27662777270E94CF0B08950E94B801AF
:10147800E0E0EA93EA930C949A01DE01AF5ABF4F79
:10148800ED91FD910895DE01AD58BF4FED91FD91AD
:101498003196FE93EE930895E2E3F0E067CFE0E043
:1014A800DE01A75ABF4FED93EC930895E0E0DE010B
:1014B800A55ABF4FED93EC930895E1E0DE01AA5AD7
:1014C800BF4FEC930895FE01E55AFF4F0190F0815C
:1014D800E02D0895DE01A75ABF4F0D90BC91A02DB5
:1014E8000895DE01A55ABF4F0D90BC91A02D089517
:1014F800DE01AA5ABF4FEC930895FA93EA930C942D
:10150800AA01E1E0EA93E0E0EA930C949A01ECA1E5
:10151800ABE0EA9FF0010895DE01D096EA0FFB1FC9
:101528000895FA93EA93E0EBF1E0FA93EA93FE0167
:10153800ED58FF4F0190F081E02D0E946C0B0E9446
:10154800CF0BFE01EB58FF4F0190F081E02D0E9478
:101558006C0B0E94CF0BFE01E958FF4F0190F08100
:10156800E02D0E946C0B0E94CF0BFE01E758FF4F45
:101578000190F081E02D0E946C0B0E94CF0BFE01C0
:10158800E558FF4F0190F081E02D0E946C0B0E94FE
:10159800CF0BFE01E358FF4F0190F081E02D0E9430
:1015A8006C0B0E94CF0BFE01E158FF4F0190F081B8
:1015B800E02D0E946C0B0E94CF0BFE01EF57FF4FEE
:1015C8000190F081E02D0E946C0B0E94CF0BFE0170
:1015D800ED57FF4F0190F081E02D0E946C0B0E94A7
:1015E800CF0BFE01EB57FF4F0190F081E02D0E94D9
:1015F8006C0B0E94CF0BFE01E957FF4F0190F08161
:10160800E02D0E946C0B0E94CF0B8CE20E945909BE
:10161800E0960895ECA1F0E0DE01AD5ABF4FAE0FA1
:10162800BF1F0895DE01AD5ABF4F0D90BC91A02D8C
:101638000895ED91FD913196FE93EE9308952A93C6
:10164800ED85FE85FA93EA93E989FA890995089563
:10165800E889F9893497E88BF98B0895ED85FE853B
:10166800FA93EA93E989FA8909950895A889B989C5
:1016780014960E94C70BEE83FF83FA93EA930895AA
:10168800A889B98914960E94C70BEA87FB87089531
:10169800DE011C960E945F0B0E94C70B0895E9911A
:1016A800F991309639F086E69EE00197F1F7A89512
:1016B8003197C9F708950024AF0DB01D0895F1952D
:1016C800E195F0400895EE0FFF1FEE0FFF1F0895FC
:1016D8006F2F660F660B762F0895EA17FB07E1E078
:1016E80009F0EE270895AE17BF07E1E00CF0EE27EA
:1016F8000895EA17FB07E1E00CF0EE270895FA9F3A
:10170800F02DEB9FF00DEA9FE02DF10D08952DD0FF
:10171800F6DF0EF4D4DF08950024112490E1AA0F17
:10172800BB1F001C111C0E1A1F0A18F40E0E1F1ED8
:1017380001C0A1609A9599F7FD01D001089515D0CF
:10174800EBDF0EF4BCDF0895E7DFFD010895E894B0
:10175800B7FF04C0A095B09511966894F7FDAFDF68
:10176800DBDFFD010EF4ABDF0895E894F7FF02C05C
:10177800A6DF6894B7FF06C0A095B095119600F84B
:10178800039400FA0895ED91FC911197089505903E
:10179800F491E02D08957A936A93FA93EA93089561
:1017A8001B2EBF2FF12D1A2EAE2FE12D08950024E8
:1017B8000A160B0608955A934A933A932A931A9352
:1017C8000A9308955D814C813B812A8119810881A2
:1017D8000895AC0FBD1F05900D928A95E1F7089505
:00000001FF
