:080000000C946B000C9400004D
:100008000C9400000C9400000C9400000C94000068
:100018000C9400000C9400000C9400000C94000058
:100028000C9400000C9400000C9400000C94000048
:100038000C9400000C9400000C9400000C94000038
:100048000C9400000C9400000C9400000C94000028
:100058000C9400000C9400000C9400000C94000018
:100068000C9400000C9400000C9400000C94000008
:100078000C9400000C9400000C9400000C940000F8
:100088000C94000002002020202020202020202086
:100098002020202020202020202000493243204DED
:1000A800617374657220496E69740053656E6420CB
:1000B8002D3E2000010005008C00150000058E0073
:1000C80010001505A30009002505B3000000F894E9
:1000D800EE27ECBBF1E0F5BFE5BFE0936C008DE0E7
:1000E800A2E0BB27ED938A95E9F780E090E1A0E0D4
:1000F800B1E0ED930197E9F7ECEBF0E0859195918C
:10010800009761F0A591B59105901590BF01F00198
:1001180005900D920197E1F7FB01F0CF8BBFEFEF50
:10012800EDBFE0E1EEBFC0E0D5E00C946501E2E38D
:10013800E0937000E4E0E0937400E0E0E093710085
:10014800089502D13A2F00E010E0E0917400E078C1
:1001580051F4D8010F5F1F4FA13DE7E0BE0710F033
:10016800E1E009C0F2CFE0917100E87F3E1711F09D
:10017800E2E001C0E0E0EDD024960895E4EAE093DF
:100188007400A8E0DEDF0895B9D0A8E1DADF90C0F6
:10019800B5D0A8E2D6DF8CC0E4E9E09374000895F6
:1001A800D3D00A2F3C8110E0E9DF1E2F103059F41C
:1001B800A02FEADF1E2F103031F4A32FE9DF1E2F06
:1001C800103009F4E9DFE12FC4D025960895EFEF48
:1001D800EABBEFE1E0936400089598D0E4609BD017
:1001E800ED7F99D09DD064C091D0EB7F94D0ED7F06
:1001F80092D096D05DC01A931A2FBB27AFD058C0A3
:100208001A930A931A2F0A81A0E40A02F001E10F57
:10021800E068AE2FE9DF19810881239608951A93C3
:100228001A2FDBDFA1E0B0E099D042C01A930A93FD
:100238008D01D801EC91E03029F0AC91F0DF0F5F2F
:100248001F4FF7CF099119910895A1E0CDDFA2E0E2
:10025800D2DF0895BCDF74D073D072D0AEE0C4DFB3
:10026800A4E0C9DFA6E0C0DFA4E0C5DFEEDF0895A3
:100278001A931A2FE0E0E0939B00E8E1E0939A00DC
:10028800E6E0E0939D00E12FF0E0309739F4E0E0FC
:10029800E0939800EFE5E09399000AC0E130A0E010
:1002A800FA0731F4E0E0E0939800E7E0E093990082
:1002B80019910895E0919B00E078E1F3E0919C00AA
:1002C800089510E020E030E0C5DFA5E1B5E0AEDF3D
:1002D800E1E0EA93A0E094DFA5E2B5E0A7DFE0E083
:1002E800E7BB25DFA0E0C4DFA8ECB0E037D0E2DF51
:1002F8000E2F0A93A52D54DFF7CFFFCF1A931A2F8D
:1003080010937300E4E8E093740008951A931A2F89
:10031800E09165000895E0936500E0916500089517
:10032800E160E093650086EF8A95F1F71BBB86EFE5
:100338008A95F1F7E0916500EE7FE09365000895F6
:10034800A8E352DFA4E057CF3A932A931A930A936B
:1003580008953B812A81198108810895109639F002
:10036800A89586E69EE00197F1F71197C9F70895D9
:00000001FF
