:080000000C9458000C94000060
:100008000C9400000C9400000C9400000C94000068
:100018000C9400000C9400000C9400000C94A900AF
:100028000C9400000C9400000C9400000C94000048
:100038000C9400000C9400000C9400000C94000038
:100048000C9400000C9400000C9400000C94000028
:100058000C9400000C9400000C9400000C94000018
:100068000C9400000C9400000C9400000C94000008
:100078000C9400000C9400000C9400000C940000F8
:100088000C9400000000010001002D4E414E004973
:100098004E460000010002008C00010007008E009F
:1000A8000100000590000000F894EE27ECBBF1E099
:1000B800F5BFE5BFE0936C008DE0A2E0BB27ED93B0
:1000C8008A95E9F780E090E1A0E0B1E0ED9301972F
:1000D800E9F7ECE9F0E085919591009761F0A59139
:1000E800B59105901590BF01F00105900D9201970B
:1000F800E1F7FB01F0CF8BBFEFEFEDBFE0E1EEBF23
:10010800C0E0D5E00C94F800E7B3E760E7BBBB9824
:10011800E7E5EDB9E0E0EEB9C09A08951A931A2F11
:10012800C0981FB9779BFECFC09AEFB11991089577
:10013800E0E0E5BDE5B5E860E5BDE4E6E3BDE0E89F
:10014800E7BFE5B5E260E5BD0895EA93EFB78394AC
:10015800EFBFE99118951A930A938D01E12FF0707A
:10016800E0636E2E902E1E98A62DD8DFA92DD6DF1F
:100178001E9A099119910895A0E0B0E0ECDFA1E082
:10018800B0E03CD308954CD19D0100E010E0043666
:10019800E0E01E0734F5F801D90154D1EA0FFB1F3E
:1001A800FF93EF93F80153D1EED1A6E5BEE089ECB9
:1001B80090E472D2DF01CB01E0E0F0E068EC72E499
:1001C800B9D2DF01CB019BD0FFD017D2A0E0B0E0BD
:1001D80088EC92E461D2AF91BF9143D10F5F1F4F7A
:1001E800D6CF23D10C948101EF97EF976297D15026
:1001F80000E010E050E0EFEFE2B9E0E0E1BB84DFBF
:10020800BBDF96DF7894DE01BEDFE0B35E2FF0E05F
:10021800EB3FA0E0FA0791F4E4E68E1618F000E050
:1002280010E08824E82DF0E0DE010CD1AE0FBF1FEE
:1002380013D170D18F01D8018EDF22C0ED3FA0E02D
:10024800FA0781F4EAE08E1618F0E1E02E268824F9
:1002580020FE03C004EF11E002C000E010E0D80166
:100268007ADF0EC0EE3FA0E0FA0751F4E4E68E16FE
:1002780018F000E010E08824085F1F4FD8016BDFFA
:10028800C4CFFFCF02D17B816A81F981E88177FBF6
:10029800770F67FD7160972F9E5781F078F098313E
:1002A80090F4AA27BB27882708948795B795A79520
:1002B8009A95D1F7EA23FB23682305C0E8947727AA
:1002C800EE27FF2766276F77769508F4606877F939
:1002D800A991B99189919991EA17FB07680779075C
:1002E80097FB0895D2D0C7D0CDDFCAD011F471D012
:1002F80004C0EEF76ED068D079D124960895C5D0A1
:1003080024971A9310E067D0E3E8F9EF62E27EE3FE
:10031800C3D166D0E7DF5FD0BDD068D161D065D0EA
:100328004DD209F008F407C065D0A0E0B0E080E045
:100338009FE365D011E04FD0E0E0F0E060E87EE3B5
:100348003DD209F008F403C046D04FD058D0103041
:1003580031F050D0ACD0ED83FE836F8378874AD0DC
:100368003AD09AD1E983FA836B837C834ED0A1EB90
:10037800B4EC86E292E490D1DF01CB01EDE1F5EE39
:100388006DE272E487D032D145D0ACE4B3E584E0C5
:1003980091E433D120D080D17F936F93FF93EF9373
:1003A80034D0A1E1BDEE8EED9FE327D133D0AEE589
:1003B800BBE788EA9FE321D1AF91BF918F919F91CD
:1003C800B9D1188129960895A0E0B0E080E89FE3AC
:1003D80008954CD00895AD81BE818F819885089588
:1003E800ED83FE836F837887F6CFE0E0F0E060E08E
:1003F8007FE30895ED81FE816F8178850895F6D0B9
:10040800ED83FE836F8378870895E981FA816B8194
:100418007C810895A981BA818B819C813DD1089501
:100428003A932A931A930A9308953B812A81198152
:1004380008810895F09560957095E195FF4F6F4F8D
:100448007F4F0895EE0FFF1FEE0FFF1F08956F2FC8
:10045800660F660B762F0895ED91FD916D917D9154
:100468000895ED93FD936D937C930895E881F98148
:100478006A817B810895A881B9818A819B810895C9
:10048800E883F9836A837B8308959A938A93BA935E
:10049800AA930895182E862F612D192E972F712D46
:1004A8001B2EBF2FF12D1A2EAE2FE12D0895309758
:1004B8006040704009F070580895552342F4503850
:1004C80011F4E0FF04C03196691F791F6BF050E802
:1004D800572711F45F93CFC05F3F31F0660F000CD0
:1004E80057956795752F08955F9300200AF0CEC041
:1004F800C7C050E8192E1522880F991F9527550F48
:10050800879550E8072E0522660F771F7527550F28
:1005180067950895689401C0E8945F93F2DF703896
:1005280018F07F3F08F4A7C056E1571BAAF451956D
:1005380058300EF4593030F0EFEFFFEF6FEF7FE7F0
:1005480077F91AC077275523B9F0EE0FFF1F661FFA
:10055800771F5A95D1F710C07727583028F0EF2F1A
:10056800F62F672F5850F9CF552331F076956795B8
:10057800F795E7955A95D1F700200AF45BDF5F916C
:100588000895689401C0E894309760407040B1F0D5
:10059800002426F0772312F400944CDF172E7EE116
:1005A800112032F07A95EE0FFF1F661F111CF9CF4C
:1005B800EF2FF62F612D5F938ADF5F9108954F9398
:1005C800AF01FD01DA01AB01BC01CA01402D012CCC
:1005D800142E4F910895EA0FFB1F681F0895E095A8
:1005E800F0956095EF5FFF4F6F4F08955F9381DF40
:1005F800903871F150E8152604C05F937ADF90387F
:1006080039F1703821F1572F591B2BF112F4D7DF2C
:10061800FACF583118F0AA27BB278827583028F076
:10062800AB2FB82F88275850F9CF552329F0869536
:10063800B795A7955A95D9F7502D512572F0CBDF6C
:1006480038F46795F795E795739513F41FC0B7DFEE
:100658003EDF5F910895D8F7FBCFEA1BFB0B680BD1
:1006680051F010F40094BBDF662392F3EE0FFF1FE6
:10067800661F7A95CBF7EE27FF27BF015F91089594
:10068800EFEFFFEF6FE77FEF5F910895EFEFFFEF79
:100698006FE77FE75F9108955F932BDF703859F319
:1006A800903849F301240894791F23F424F3002097
:1006B8003AF3ECCF0F921F932F933F934F93112749
:1006C80022279927689FA0018F9F302D410D591F20
:1006D8006B9F300D411D591F8E9F27D0BF9F25D07E
:1006E8006A9F23D0BE9F1DD0AF9F1BD0AE9F110D18
:1006F800291F391F491F591FE32FF42F652F522F28
:100708004F913F912F911F910F9066232AF0550F1B
:10071800EE1FFF1F661F02C073954BF2CEDE5F917E
:100728000895100D211D391F02C0200D311D491FCC
:10073800591F08955F93DDDE703821F411200AF403
:100748009FCFA4CF903809F496CF01240894970B33
:100758001BF4D4F30020F3CF792F1F932F933F93EB
:100768004F931124112722273327A90190E2AE17AE
:10077800BF078607410730F0AE1BBF0B860B410B46
:10078800089401C08894551F221F331F111CAA1FEB
:10079800BB1F881F441F9A9551F7F901612D4F918E
:1007A8003F912F911F91662332F0550FEE1FFF1FC7
:1007B800661F7A954BF281DE5F91089599239AF02E
:1007C800772342F0971748F029F4AE17BF0786073A
:1007D80020F031F098948894089598940894089596
:1007E8001894889408957723C2F7971798F3A9F770
:1007F800EA17FB07680788F399F3ECCF109639F0EE
:10080800A89586E69EE00197F1F71197C9F7089534
:00000001FF
