:0E0000000C945C000C9400000C9400000C9416
:10000E0000000C9400000C9400000C9400000C9462
:10001E0000000C9400000C9400000C9400000C9452
:10002E0000000C9400000C9400000C9400000C9442
:10003E0000000C9400000C9400000C9400000C9432
:10004E0000000C9400000C9400000C9400000C9422
:10005E0000000C9400000C9400000C9400000C9412
:10006E0000000C9400000C9400000C9449010C94B8
:10007E0000000C9400000C9400000C940000000092
:10008E00000000001400202020202020202020200E
:10009E002020202020202020202000000600040008
:1000AE008C001500000594000000F894EE27ECBBC0
:1000BE00F1E0F5BFE5BFE0936C008DE0A2E0BB2759
:1000CE00ED938A95E9F780E090E1A0E0B1E0ED9341
:1000DE000197E9F7EAEAF0E085919591009761F0D2
:1000EE00A591B59105901590BF01F00105900D9267
:1000FE000197E1F7FB01F0CF8BBFEFEFEDBFE0E132
:10010E00EEBFC0E0D5E00C94A801EFEFEABBEFE143
:10011E00E0936400089525D1E46028D1ED7F26D1C7
:10012E002AD18BC01ED1EB7F21D1ED7F1FD123D1E0
:10013E0084C01A931A2FBB2741D17FC02CD1A0E4C3
:10014E000A02F001E10FE068AE2FECDF4CC01A930B
:10015E001A2FE1DFA1E0B0E031D16FC0A1E0E2DF04
:10016E00A2E0E7DF0895D1DF1BD11AD119D1AEE09D
:10017E00D9DFA4E0DEDFA6E0D5DFA4E0DADFEEDF34
:10018E00089509D1E0E0E0939B00E8E9E0939A003E
:10019E00E02FF0E0309739F4E0E0E0939800EFE5DF
:1001AE00E09399000AC0E130A0E0FA0731F4E0E0F4
:1001BE00E0939800E7E0E0939900E12FF0E03097AC
:1001CE0011F4E8E90BC0E130A0E0FA0711F4E8E31E
:1001DE0005C0E230A0E0FA0719F4E8EBE0939A00CC
:1001EE00E6E0E0939D0019810881239608951A9305
:1001FE001A2FD301A419B50954971CF0EFEFFFEF96
:10020E001CC0D301A419B509ECEEFFEFEA17FB07EA
:10021E001CF0EFEFFFEF11C0F301EB5EFA4F10830E
:10022E00F30131963F01E4E1F0E06E167F0614F023
:10023E0066247724F301E419F509199108951A93A8
:10024E000A938D01F301E419F50929F4E0E0EC932A
:10025E00EFEFFFEF14C0A5E1B5E0A40DB51DEC91D5
:10026E00D801EC93F20131962F01E4E1F0E04E1645
:10027E005F0614F044245524F301E419F50909919D
:10028E00199108950A921A92FA926A937A938A931E
:10029E009A93AA93BA93EA93FA93EFB7EA9384D018
:1002AE0030E030919C00A32FA2DF46145704CCF40B
:1002BE00D301A419B50951971CF0A5E1B5E0BFDF34
:1002CE0000E010E00031E0E01E0754F4F801E40D08
:1002DE00F51DEB5EFA4FA0813ADF0F5F1F4FF2CF95
:1002EE0020C064147504ECF4A5E1B5E0A8DF00E0CD
:1002FE0010E00031E0E01E07A4F4D801A40DB51DF6
:10030E00549724F4F801E40DF51D04C0F801E40D32
:10031E00F51D7497EB5EFA4FA08119DF0F5F1F4F2B
:10032E00E8CF47D02496E991EFBFF991E991B991C1
:10033E00A9919991899179916991F9901990099062
:10034E00189511DFE0E0EA93A0E01BDF7894E1E07E
:10035E00DE2EAA24BB24E0E0EA93A0E0EFDEFBCF82
:10036E00FFCF1A931A2FE09165000895E093650070
:10037E00E09165000895E160E093650086EF8A954F
:10038E00F1F71BBB86EF8A95F1F7E0916500EE7FE2
:10039E00E093650008951A930A931A2F0A8108951F
:1003AE00A8E3C0DEA4E0C5CE3A932A931A930A932B
:1003BE0008953B812A81198108810895109639F09C
:1003CE00A89586E69EE00197F1F71197C9F7089573
:00000001FF
